{
  "address": "0x82e01223d51Eb87e16A03E24687EDF0F294da6f1",
  "abi": [
    {
      "inputs": [
        {
          "internalType": "uint256",
          "name": "_pricePerToken",
          "type": "uint256"
        },
        {
          "internalType": "address",
          "name": "_rairAddress",
          "type": "address"
        }
      ],
      "stateMutability": "nonpayable",
      "type": "constructor"
    },
    {
      "anonymous": false,
      "inputs": [
        {
          "indexed": false,
          "internalType": "address",
          "name": "owner",
          "type": "address"
        },
        {
          "indexed": false,
          "internalType": "uint256",
          "name": "id",
          "type": "uint256"
        },
        {
          "indexed": false,
          "internalType": "address",
          "name": "token",
          "type": "address"
        },
        {
          "indexed": false,
          "internalType": "string",
          "name": "contractName",
          "type": "string"
        }
      ],
      "name": "NewContractDeployed",
      "type": "event"
    },
    {
      "anonymous": false,
      "inputs": [
        {
          "indexed": false,
          "internalType": "address",
          "name": "erc777",
          "type": "address"
        },
        {
          "indexed": false,
          "internalType": "uint256",
          "name": "priceForNFT",
          "type": "uint256"
        }
      ],
      "name": "NewTokensAccepted",
      "type": "event"
    },
    {
      "anonymous": false,
      "inputs": [
        {
          "indexed": true,
          "internalType": "bytes32",
          "name": "role",
          "type": "bytes32"
        },
        {
          "indexed": true,
          "internalType": "bytes32",
          "name": "previousAdminRole",
          "type": "bytes32"
        },
        {
          "indexed": true,
          "internalType": "bytes32",
          "name": "newAdminRole",
          "type": "bytes32"
        }
      ],
      "name": "RoleAdminChanged",
      "type": "event"
    },
    {
      "anonymous": false,
      "inputs": [
        {
          "indexed": true,
          "internalType": "bytes32",
          "name": "role",
          "type": "bytes32"
        },
        {
          "indexed": true,
          "internalType": "address",
          "name": "account",
          "type": "address"
        },
        {
          "indexed": true,
          "internalType": "address",
          "name": "sender",
          "type": "address"
        }
      ],
      "name": "RoleGranted",
      "type": "event"
    },
    {
      "anonymous": false,
      "inputs": [
        {
          "indexed": true,
          "internalType": "bytes32",
          "name": "role",
          "type": "bytes32"
        },
        {
          "indexed": true,
          "internalType": "address",
          "name": "account",
          "type": "address"
        },
        {
          "indexed": true,
          "internalType": "address",
          "name": "sender",
          "type": "address"
        }
      ],
      "name": "RoleRevoked",
      "type": "event"
    },
    {
      "anonymous": false,
      "inputs": [
        {
          "indexed": false,
          "internalType": "address",
          "name": "erc777",
          "type": "address"
        }
      ],
      "name": "TokenNoLongerAccepted",
      "type": "event"
    },
    {
      "anonymous": false,
      "inputs": [
        {
          "indexed": false,
          "internalType": "address",
          "name": "recipient",
          "type": "address"
        },
        {
          "indexed": false,
          "internalType": "address",
          "name": "erc777",
          "type": "address"
        },
        {
          "indexed": false,
          "internalType": "uint256",
          "name": "amount",
          "type": "uint256"
        }
      ],
      "name": "TokensWithdrawn",
      "type": "event"
    },
    {
      "inputs": [],
      "name": "DEFAULT_ADMIN_ROLE",
      "outputs": [
        {
          "internalType": "bytes32",
          "name": "",
          "type": "bytes32"
        }
      ],
      "stateMutability": "view",
      "type": "function"
    },
    {
      "inputs": [],
      "name": "ERC777",
      "outputs": [
        {
          "internalType": "bytes32",
          "name": "",
          "type": "bytes32"
        }
      ],
      "stateMutability": "view",
      "type": "function"
    },
    {
      "inputs": [],
      "name": "OWNER",
      "outputs": [
        {
          "internalType": "bytes32",
          "name": "",
          "type": "bytes32"
        }
      ],
      "stateMutability": "view",
      "type": "function"
    },
    {
      "inputs": [
        {
          "internalType": "address",
          "name": "_erc777Address",
          "type": "address"
        },
        {
          "internalType": "uint256",
          "name": "_pricePerToken",
          "type": "uint256"
        }
      ],
      "name": "add777Token",
      "outputs": [],
      "stateMutability": "nonpayable",
      "type": "function"
    },
    {
      "inputs": [
        {
          "internalType": "address",
          "name": "",
          "type": "address"
        }
      ],
      "name": "contractToOwner",
      "outputs": [
        {
          "internalType": "address",
          "name": "",
          "type": "address"
        }
      ],
      "stateMutability": "view",
      "type": "function"
    },
    {
      "inputs": [
        {
          "internalType": "uint256",
          "name": "",
          "type": "uint256"
        }
      ],
      "name": "creators",
      "outputs": [
        {
          "internalType": "address",
          "name": "",
          "type": "address"
        }
      ],
      "stateMutability": "view",
      "type": "function"
    },
    {
      "inputs": [
        {
          "internalType": "address",
          "name": "",
          "type": "address"
        }
      ],
      "name": "deploymentCostForERC777",
      "outputs": [
        {
          "internalType": "uint256",
          "name": "",
          "type": "uint256"
        }
      ],
      "stateMutability": "view",
      "type": "function"
    },
    {
      "inputs": [
        {
          "internalType": "address",
          "name": "deployer",
          "type": "address"
        }
      ],
      "name": "getContractCountOf",
      "outputs": [
        {
          "internalType": "uint256",
          "name": "count",
          "type": "uint256"
        }
      ],
      "stateMutability": "view",
      "type": "function"
    },
    {
      "inputs": [],
      "name": "getCreatorsCount",
      "outputs": [
        {
          "internalType": "uint256",
          "name": "count",
          "type": "uint256"
        }
      ],
      "stateMutability": "view",
      "type": "function"
    },
    {
      "inputs": [
        {
          "internalType": "bytes32",
          "name": "role",
          "type": "bytes32"
        }
      ],
      "name": "getRoleAdmin",
      "outputs": [
        {
          "internalType": "bytes32",
          "name": "",
          "type": "bytes32"
        }
      ],
      "stateMutability": "view",
      "type": "function"
    },
    {
      "inputs": [
        {
          "internalType": "bytes32",
          "name": "role",
          "type": "bytes32"
        },
        {
          "internalType": "uint256",
          "name": "index",
          "type": "uint256"
        }
      ],
      "name": "getRoleMember",
      "outputs": [
        {
          "internalType": "address",
          "name": "",
          "type": "address"
        }
      ],
      "stateMutability": "view",
      "type": "function"
    },
    {
      "inputs": [
        {
          "internalType": "bytes32",
          "name": "role",
          "type": "bytes32"
        }
      ],
      "name": "getRoleMemberCount",
      "outputs": [
        {
          "internalType": "uint256",
          "name": "",
          "type": "uint256"
        }
      ],
      "stateMutability": "view",
      "type": "function"
    },
    {
      "inputs": [
        {
          "internalType": "bytes32",
          "name": "role",
          "type": "bytes32"
        },
        {
          "internalType": "address",
          "name": "account",
          "type": "address"
        }
      ],
      "name": "grantRole",
      "outputs": [],
      "stateMutability": "nonpayable",
      "type": "function"
    },
    {
      "inputs": [
        {
          "internalType": "bytes32",
          "name": "role",
          "type": "bytes32"
        },
        {
          "internalType": "address",
          "name": "account",
          "type": "address"
        }
      ],
      "name": "hasRole",
      "outputs": [
        {
          "internalType": "bool",
          "name": "",
          "type": "bool"
        }
      ],
      "stateMutability": "view",
      "type": "function"
    },
    {
      "inputs": [
        {
          "internalType": "address",
          "name": "",
          "type": "address"
        },
        {
          "internalType": "uint256",
          "name": "",
          "type": "uint256"
        }
      ],
      "name": "ownerToContracts",
      "outputs": [
        {
          "internalType": "address",
          "name": "",
          "type": "address"
        }
      ],
      "stateMutability": "view",
      "type": "function"
    },
    {
      "inputs": [
        {
          "internalType": "address",
          "name": "_erc777Address",
          "type": "address"
        }
      ],
      "name": "remove777Token",
      "outputs": [],
      "stateMutability": "nonpayable",
      "type": "function"
    },
    {
      "inputs": [
        {
          "internalType": "bytes32",
          "name": "role",
          "type": "bytes32"
        },
        {
          "internalType": "address",
          "name": "account",
          "type": "address"
        }
      ],
      "name": "renounceRole",
      "outputs": [],
      "stateMutability": "nonpayable",
      "type": "function"
    },
    {
      "inputs": [
        {
          "internalType": "bytes32",
          "name": "role",
          "type": "bytes32"
        },
        {
          "internalType": "address",
          "name": "account",
          "type": "address"
        }
      ],
      "name": "revokeRole",
      "outputs": [],
      "stateMutability": "nonpayable",
      "type": "function"
    },
    {
      "inputs": [
        {
          "internalType": "bytes4",
          "name": "interfaceId",
          "type": "bytes4"
        }
      ],
      "name": "supportsInterface",
      "outputs": [
        {
          "internalType": "bool",
          "name": "",
          "type": "bool"
        }
      ],
      "stateMutability": "view",
      "type": "function"
    },
    {
      "inputs": [
        {
          "internalType": "address",
          "name": "operator",
          "type": "address"
        },
        {
          "internalType": "address",
          "name": "from",
          "type": "address"
        },
        {
          "internalType": "address",
          "name": "to",
          "type": "address"
        },
        {
          "internalType": "uint256",
          "name": "amount",
          "type": "uint256"
        },
        {
          "internalType": "bytes",
          "name": "userData",
          "type": "bytes"
        },
        {
          "internalType": "bytes",
          "name": "operatorData",
          "type": "bytes"
        }
      ],
      "name": "tokensReceived",
      "outputs": [],
      "stateMutability": "nonpayable",
      "type": "function"
    },
    {
      "inputs": [
        {
          "internalType": "address",
          "name": "erc777",
          "type": "address"
        },
        {
          "internalType": "uint256",
          "name": "amount",
          "type": "uint256"
        }
      ],
      "name": "withdrawTokens",
      "outputs": [],
      "stateMutability": "nonpayable",
      "type": "function"
    }
  ],
  "transactionHash": "0x35d231461b8a217e6e1559a218131e3b08f09238ee01bad5a4b1dc904a60c0a8",
  "args": [
    "15000000000000000000",
    "0x0Ce668D271b8016a785Bf146e58739F432300B12"
  ],
  "numDeployments": 1,
  "solcInputHash": "49ae1db67ed3699a70febcdf7e1fa595",
  "bytecode": "0x60806040523480156200001157600080fd5b506040516200618c3803806200618c833981016040819052620000349162000361565b6040516329965a1d60e01b815230600482018190527fb281fc8c12954d22544db45de3159a39272895b169a852b314f9cc762e44c53b60248301526044820152731820a4b7618bde71dce8cdc73aab6c95905fad24906329965a1d90606401600060405180830381600087803b158015620000ae57600080fd5b505af1158015620000c3573d6000803e3d6000fd5b50505050620000e86000805160206200614c83398151915280620001b160201b60201c565b620001126000805160206200616c8339815191526000805160206200614c833981519152620001b1565b6200011f600033620001fc565b6200013a6000805160206200614c83398151915233620001fc565b620001556000805160206200616c83398151915282620001fc565b6001600160a01b038116600081815260046020908152604091829020859055815192835282018490527f3229ffedb9ac4c1136e523cacfdab8c7621a1f1394161e5fa51850fbf4b4079b910160405180910390a15050620003a0565b600082815260208190526040808220600101805490849055905190918391839186917fbd79b86ffe0ab8e8776151514217cd7cacd52c909f66475c3af44e129f0b00ff9190a4505050565b6200020882826200020c565b5050565b6200022382826200024f60201b62000a9e1760201c565b60008281526001602090815260409091206200024a91839062000b26620002ef821b17901c565b505050565b6000828152602081815260408083206001600160a01b038516845290915290205460ff1662000208576000828152602081815260408083206001600160a01b03851684529091529020805460ff19166001179055620002ab3390565b6001600160a01b0316816001600160a01b0316837f2f8788117e7eff1d82e926ec794901d17c78024a50270940304540a733656f0d60405160405180910390a45050565b600062000306836001600160a01b0384166200030f565b90505b92915050565b6000818152600183016020526040812054620003585750815460018181018455600084815260208082209093018490558454848252828601909352604090209190915562000309565b50600062000309565b600080604083850312156200037557600080fd5b825160208401519092506001600160a01b03811681146200039557600080fd5b809150509250929050565b615d9c80620003b06000396000f3fe60806040523480156200001157600080fd5b5060043610620001505760003560e01c8063871797f711620000c7578063aa55ecbc1162000086578063aa55ecbc146200030f578063ca15c8731462000318578063cd53d08e146200032f578063d547741f1462000346578063dbdda1a1146200035d578063f42512ce146200037457600080fd5b8063871797f714620002895780639010d07c14620002ac57806391d1485414620002c3578063956f903814620002da578063a217fddf146200030657600080fd5b8063248a9ca31162000114578063248a9ca314620001ee5780632f2ff15d146200021457806336568abe146200022b578063543a16b114620002425780636a1972bd146200025957600080fd5b806223de29146200015557806301ffc9a7146200016e57806306b091f9146200019a578063117803e314620001b15780631c6ee6a214620001d7575b600080fd5b6200016c620001663660046200108a565b620003a0565b005b620001856200017f36600462001142565b62000631565b60405190151581526020015b60405180910390f35b6200016c620001ab3660046200116e565b6200065f565b620001c860008051602062005d2783398151915281565b60405190815260200162000191565b6200016c620001e83660046200116e565b620007ed565b620001c8620001ff3660046200119b565b60009081526020819052604090206001015490565b6200016c62000225366004620011b5565b62000875565b6200016c6200023c366004620011b5565b620008a3565b620001c860008051602062005d4783398151915281565b620002706200026a3660046200116e565b62000925565b6040516001600160a01b03909116815260200162000191565b620001c86200029a366004620011e4565b60046020526000908152604090205481565b62000270620002bd36600462001202565b6200095e565b62000185620002d4366004620011b5565b6200097f565b620001c8620002eb366004620011e4565b6001600160a01b031660009081526002602052604090205490565b620001c8600081565b600554620001c8565b620001c8620003293660046200119b565b620009a8565b62000270620003403660046200119b565b620009c1565b6200016c62000357366004620011b5565b620009ec565b6200016c6200036e366004620011e4565b62000a15565b6200027062000385366004620011e4565b6003602052600090815260409020546001600160a01b031681565b60008051602062005d47833981519152620003bb8162000b3d565b33600090815260046020526040902054861015620004465760405162461bcd60e51b815260206004820152603960248201527f5241495220466163746f72793a206e6f7420656e6f756768205241495220746f60448201527f6b656e7320746f206465706c6f79206120636f6e74726163740000000000000060648201526084015b60405180910390fd5b336000908152600460205260408120546200046290886200123b565b1115620004e55733600081815260046020526040902054639bd9bbc6908a906200048d908a6200123b565b88886040518563ffffffff1660e01b8152600401620004b094939291906200127e565b600060405180830381600087803b158015620004cb57600080fd5b505af1158015620004e0573d6000803e3d6000fd5b505050505b6001600160a01b038816600090815260026020526040902080546200055057600580546001810182556000919091527f036b6384b5eca791c62761152d0c79bb0604c104a5fb6f4eb0703f3154bb3db00180546001600160a01b0319166001600160a01b038b161790555b600086868b617530604051620005669062001013565b620005759493929190620012b2565b604051809103906000f08015801562000592573d6000803e3d6000fd5b5082546001810184556000848152602080822090920180546001600160a01b03199081166001600160a01b03868116918217909355835260039093526040918290208054909316908e1617909155835490519192507f545d813d4a5a55fa5aa3e0d25319b0460e7954e015ba9786c512950696d5fc5f916200061c918d9185908c908c90620012ed565b60405180910390a15050505050505050505050565b60006001600160e01b03198216635a05180f60e01b1480620006595750620006598262000b4c565b92915050565b60008051602062005d278339815191526200067a8162000b3d565b6200069560008051602062005d47833981519152846200097f565b620007145760405162461bcd60e51b815260206004820152604260248201527f5241495220466163746f72793a2053706563696669656420636f6e747261637460448201527f2069736e277420616e20617070726f7665642065726337373720636f6e74726160648201526118dd60f21b608482015260a4016200043d565b604051634decdde360e11b81523360048201526024810183905260606044820152601060648201526f466163746f727920576974686472617760801b60848201526001600160a01b03841690639bd9bbc69060a401600060405180830381600087803b1580156200078457600080fd5b505af115801562000799573d6000803e3d6000fd5b5050604080513381526001600160a01b03871660208201529081018590527f6337ed398c0e8467698c581374fdce4db14922df487b5a39483079f5f59b60a4925060600190505b60405180910390a1505050565b60008051602062005d27833981519152620008088162000b3d565b6200082360008051602062005d478339815191528462000875565b6001600160a01b038316600081815260046020908152604091829020859055815192835282018490527f3229ffedb9ac4c1136e523cacfdab8c7621a1f1394161e5fa51850fbf4b4079b9101620007e0565b600082815260208190526040902060010154620008928162000b3d565b6200089e838362000b83565b505050565b6001600160a01b0381163314620009155760405162461bcd60e51b815260206004820152602f60248201527f416363657373436f6e74726f6c3a2063616e206f6e6c792072656e6f756e636560448201526e103937b632b9903337b91039b2b63360891b60648201526084016200043d565b62000921828262000ba9565b5050565b600260205281600052604060002081815481106200094257600080fd5b6000918252602090912001546001600160a01b03169150829050565b600082815260016020526040812062000978908362000bcf565b9392505050565b6000918252602082815260408084206001600160a01b0393909316845291905290205460ff1690565b6000818152600160205260408120620006599062000bdd565b60058181548110620009d257600080fd5b6000918252602090912001546001600160a01b0316905081565b60008281526020819052604090206001015462000a098162000b3d565b6200089e838362000ba9565b60008051602062005d2783398151915262000a308162000b3d565b62000a4b60008051602062005d4783398151915283620009ec565b6001600160a01b03821660008181526004602090815260408083209290925590519182527ffae0368e2524d44fb9cd4e3d7b3c3ef4c00778a55c6121e48e49d11fb38c7e38910160405180910390a15050565b62000aaa82826200097f565b62000921576000828152602081815260408083206001600160a01b03851684529091529020805460ff1916600117905562000ae23390565b6001600160a01b0316816001600160a01b0316837f2f8788117e7eff1d82e926ec794901d17c78024a50270940304540a733656f0d60405160405180910390a45050565b600062000978836001600160a01b03841662000be8565b62000b49813362000c3a565b50565b60006001600160e01b03198216637965db0b60e01b14806200065957506301ffc9a760e01b6001600160e01b031983161462000659565b62000b8f828262000a9e565b60008281526001602052604090206200089e908262000b26565b62000bb5828262000ca9565b60008281526001602052604090206200089e908262000d11565b600062000978838362000d28565b600062000659825490565b600081815260018301602052604081205462000c315750815460018181018455600084815260208082209093018490558454848252828601909352604090209190915562000659565b50600062000659565b62000c4682826200097f565b620009215762000c61816001600160a01b0316601462000d55565b62000c6e83602062000d55565b60405160200162000c8192919062001361565b60408051601f198184030181529082905262461bcd60e51b82526200043d91600401620013da565b62000cb582826200097f565b1562000921576000828152602081815260408083206001600160a01b0385168085529252808320805460ff1916905551339285917ff6391f5c32d9c69d2a47ea670b442974b53935d1edc7fd64eb21e047a839171b9190a45050565b600062000978836001600160a01b03841662000f0f565b600082600001828154811062000d425762000d426200140f565b9060005260206000200154905092915050565b6060600062000d6683600262001425565b62000d7390600262001447565b67ffffffffffffffff81111562000d8e5762000d8e62001462565b6040519080825280601f01601f19166020018201604052801562000db9576020820181803683370190505b509050600360fc1b8160008151811062000dd75762000dd76200140f565b60200101906001600160f81b031916908160001a905350600f60fb1b8160018151811062000e095762000e096200140f565b60200101906001600160f81b031916908160001a905350600062000e2f84600262001425565b62000e3c90600162001447565b90505b600181111562000ebe576f181899199a1a9b1b9c1cb0b131b232b360811b85600f166010811062000e745762000e746200140f565b1a60f81b82828151811062000e8d5762000e8d6200140f565b60200101906001600160f81b031916908160001a90535060049490941c9362000eb68162001478565b905062000e3f565b508315620009785760405162461bcd60e51b815260206004820181905260248201527f537472696e67733a20686578206c656e67746820696e73756666696369656e7460448201526064016200043d565b600081815260018301602052604081205480156200100857600062000f366001836200123b565b855490915060009062000f4c906001906200123b565b905081811462000fb857600086600001828154811062000f705762000f706200140f565b906000526020600020015490508087600001848154811062000f965762000f966200140f565b6000918252602080832090910192909255918252600188019052604090208390555b855486908062000fcc5762000fcc62001492565b60019003818190600052602060002001600090559055856001016000868152602001908152602001600020600090556001935050505062000659565b600091505062000659565b61487e80620014a983390190565b80356001600160a01b03811681146200103957600080fd5b919050565b60008083601f8401126200105157600080fd5b50813567ffffffffffffffff8111156200106a57600080fd5b6020830191508360208285010111156200108357600080fd5b9250929050565b60008060008060008060008060c0898b031215620010a757600080fd5b620010b28962001021565b9750620010c260208a0162001021565b9650620010d260408a0162001021565b955060608901359450608089013567ffffffffffffffff80821115620010f757600080fd5b620011058c838d016200103e565b909650945060a08b01359150808211156200111f57600080fd5b506200112e8b828c016200103e565b999c989b5096995094979396929594505050565b6000602082840312156200115557600080fd5b81356001600160e01b0319811681146200097857600080fd5b600080604083850312156200118257600080fd5b6200118d8362001021565b946020939093013593505050565b600060208284031215620011ae57600080fd5b5035919050565b60008060408385031215620011c957600080fd5b82359150620011db6020840162001021565b90509250929050565b600060208284031215620011f757600080fd5b620009788262001021565b600080604083850312156200121657600080fd5b50508035926020909101359150565b634e487b7160e01b600052601160045260246000fd5b60008282101562001250576200125062001225565b500390565b81835281816020850137506000828201602090810191909152601f909101601f19169091010190565b60018060a01b0385168152836020820152606060408201526000620012a860608301848662001255565b9695505050505050565b606081526000620012c860608301868862001255565b6001600160a01b039490941660208301525061ffff9190911660409091015292915050565b6001600160a01b038681168252602082018690528416604082015260806060820181905260009062001323908301848662001255565b979650505050505050565b60005b838110156200134b57818101518382015260200162001331565b838111156200135b576000848401525b50505050565b7f416363657373436f6e74726f6c3a206163636f756e74200000000000000000008152600083516200139b8160178501602088016200132e565b7001034b99036b4b9b9b4b733903937b6329607d1b6017918401918201528351620013ce8160288401602088016200132e565b01602801949350505050565b6020815260008251806020840152620013fb8160408501602087016200132e565b601f01601f19169190910160400192915050565b634e487b7160e01b600052603260045260246000fd5b600081600019048311821515161562001442576200144262001225565b500290565b600082198211156200145d576200145d62001225565b500190565b634e487b7160e01b600052604160045260246000fd5b6000816200148a576200148a62001225565b506000190190565b634e487b7160e01b600052603160045260246000fdfe60806040523480156200001157600080fd5b506040516200487e3803806200487e8339810160408190526200003491620003f7565b82604051806040016040528060048152602001632920a4a960e11b81525081600090805190602001906200006a9291906200030b565b508051620000809060019060208401906200030b565b5050601580546001600160b01b0319163361ffff60a01b191617600160a01b61ffff85160217905550620000d36000805160206200483e8339815191526000805160206200481e83398151915262000157565b620000fd6000805160206200485e8339815191526000805160206200481e83398151915262000157565b620001186000805160206200481e83398151915283620001a2565b620001336000805160206200483e83398151915283620001a2565b6200014e6000805160206200485e83398151915283620001a2565b50505062000537565b6000828152600a6020526040808220600101805490849055905190918391839186917fbd79b86ffe0ab8e8776151514217cd7cacd52c909f66475c3af44e129f0b00ff9190a4505050565b620001ae8282620001b2565b5050565b620001c98282620001f560201b620024ed1760201c565b6000828152600b60209081526040909120620001f09183906200257362000299821b17901c565b505050565b6000828152600a602090815260408083206001600160a01b038516845290915290205460ff16620001ae576000828152600a602090815260408083206001600160a01b03851684529091529020805460ff19166001179055620002553390565b6001600160a01b0316816001600160a01b0316837f2f8788117e7eff1d82e926ec794901d17c78024a50270940304540a733656f0d60405160405180910390a45050565b6000620002b0836001600160a01b038416620002b9565b90505b92915050565b60008181526001830160205260408120546200030257508154600181810184556000848152602080822090930184905584548482528286019093526040902091909155620002b3565b506000620002b3565b8280546200031990620004fa565b90600052602060002090601f0160209004810192826200033d576000855562000388565b82601f106200035857805160ff191683800117855562000388565b8280016001018555821562000388579182015b82811115620003885782518255916020019190600101906200036b565b50620003969291506200039a565b5090565b5b808211156200039657600081556001016200039b565b634e487b7160e01b600052604160045260246000fd5b80516001600160a01b0381168114620003df57600080fd5b919050565b805161ffff81168114620003df57600080fd5b6000806000606084860312156200040d57600080fd5b83516001600160401b03808211156200042557600080fd5b818601915086601f8301126200043a57600080fd5b8151818111156200044f576200044f620003b1565b604051601f8201601f19908116603f011681019083821181831017156200047a576200047a620003b1565b816040528281526020935089848487010111156200049757600080fd5b600091505b82821015620004bb57848201840151818301850152908301906200049c565b82821115620004cd5760008484830101525b9650620004df915050868201620003c7565b93505050620004f160408501620003e4565b90509250925092565b600181811c908216806200050f57607f821691505b602082108114156200053157634e487b7160e01b600052602260045260246000fd5b50919050565b6142d780620005476000396000f3fe608060405234801561001057600080fd5b50600436106102d65760003560e01c80636c99dcbf11610182578063c00b83c5116100e9578063d547741f116100a2578063e8a3d4851161007c578063e8a3d485146106e8578063e9300c6c146106f0578063e985e9c514610703578063fe6d81241461071657600080fd5b8063d547741f146106a0578063d76bf566146106b3578063e4fbb609146106d357600080fd5b8063c00b83c51461062e578063c1d78b4a14610641578063c45a015514610654578063c87b56dd14610667578063ca15c8731461067a578063d403bf861461068d57600080fd5b806395d89b411161013b57806395d89b41146105c1578063a217fddf146105c9578063a22cb465146105d1578063b88d4fde146105e4578063b9db15b4146105f7578063bda5ec331461061b57600080fd5b80636c99dcbf1461052f57806370a0823114610542578063876654a0146105555780639010d07c1461058857806391d148541461059b578063938e3d7b146105ae57600080fd5b8063248a9ca3116102415780633d42f206116101fa5780634dcf6ad6116101d45780634dcf6ad6146104e35780634f6ccce7146104f657806355f804b3146105095780636352211e1461051c57600080fd5b80633d42f206146104b557806342842e0e146104c85780634a348da9146104db57600080fd5b8063248a9ca314610414578063276a28a3146104375780632a55205a1461044a5780632f2ff15d1461047c5780632f745c591461048f57806336568abe146104a257600080fd5b806315a182411161029357806315a1824114610399578063175c4ef8146103ac57806318160ddd146103d35780631c899d1a146103db57806323b872dd146103ee57806324704bd71461040157600080fd5b806301ffc9a7146102db5780630301e1e21461030357806306fdde0314610331578063081812fc14610346578063095ea7b314610371578063156e29f614610386575b600080fd5b6102ee6102e936600461379e565b61073d565b60405190151581526020015b60405180910390f35b6103236103113660046137bb565b6000908152600c602052604090205490565b6040519081526020016102fa565b610339610768565b6040516102fa919061382c565b6103596103543660046137bb565b6107fa565b6040516001600160a01b0390911681526020016102fa565b61038461037f36600461385b565b610894565b005b610384610394366004613885565b6109aa565b6103846103a73660046138b8565b610d26565b6103237f872340a532bdd7bb02bea115c1b0f1ba87eac982f5b79b51ac189ffaac1b6fce81565b600854610323565b6103846103e936600461392c565b611041565b6103846103fc366004613978565b6110b4565b61032361040f3660046139b4565b6110e5565b6103236104223660046137bb565b6000908152600a602052604090206001015490565b6102ee6104453660046137bb565b611116565b61045d6104583660046139b4565b61119c565b604080516001600160a01b0390931683526020830191909152016102fa565b61038461048a3660046139d6565b6111eb565b61032361049d36600461385b565b611210565b6103846104b03660046139d6565b6112a6565b6102ee6104c3366004613a02565b611324565b6103846104d6366004613978565b61152a565b601454610323565b6103846104f13660046137bb565b611545565b6103236105043660046137bb565b6115a1565b610384610517366004613a2e565b611634565b61035961052a3660046137bb565b611697565b6102ee61053d366004613a70565b61170e565b610323610550366004613aa9565b6118ea565b6105686105633660046137bb565b611971565b6040805194855260208501939093529183015260608201526080016102fa565b6103596105963660046139b4565b611b48565b6102ee6105a93660046139d6565b611b60565b6103846105bc366004613a2e565b611b8b565b610339611be1565b610323600081565b6103846105df366004613ac4565b611bf0565b6103846105f2366004613b8c565b611bfb565b61060a6106053660046137bb565b611c33565b6040516102fa959493929190613c08565b610323610629366004613a02565b611d9c565b61032361063c3660046137bb565b611fdd565b61038461064f366004613cb6565b61201e565b601554610359906001600160a01b031681565b6103396106753660046137bb565b612110565b6103236106883660046137bb565b6122b1565b61038461069b36600461392c565b6122c8565b6103846106ae3660046139d6565b61232d565b6103236106c13660046137bb565b600d6020526000908152604090205481565b61032360008051602061428283398151915281565b610339612352565b6103846106fe366004613d22565b612361565b6102ee610711366004613d7b565b61248d565b6103237ff0887ba65ee2024ea881d91b74c2450ef19e1557f03bed3ea9f16b037cbe2dc981565b60006001600160e01b03198216632baae9fd60e01b1480610762575061076282612588565b92915050565b60606000805461077790613da5565b80601f01602080910402602001604051908101604052809291908181526020018280546107a390613da5565b80156107f05780601f106107c5576101008083540402835291602001916107f0565b820191906000526020600020905b8154815290600101906020018083116107d357829003601f168201915b5050505050905090565b6000818152600260205260408120546001600160a01b03166108785760405162461bcd60e51b815260206004820152602c60248201527f4552433732313a20617070726f76656420717565727920666f72206e6f6e657860448201526b34b9ba32b73a103a37b5b2b760a11b60648201526084015b60405180910390fd5b506000908152600460205260409020546001600160a01b031690565b600061089f82611697565b9050806001600160a01b0316836001600160a01b0316141561090d5760405162461bcd60e51b815260206004820152602160248201527f4552433732313a20617070726f76616c20746f2063757272656e74206f776e656044820152603960f91b606482015260840161086f565b336001600160a01b03821614806109295750610929813361248d565b61099b5760405162461bcd60e51b815260206004820152603860248201527f4552433732313a20617070726f76652063616c6c6572206973206e6f74206f7760448201527f6e6572206e6f7220617070726f76656420666f7220616c6c0000000000000000606482015260840161086f565b6109a583836125ad565b505050565b7ff0887ba65ee2024ea881d91b74c2450ef19e1557f03bed3ea9f16b037cbe2dc96109d48161261b565b601454839081106109f75760405162461bcd60e51b815260040161086f90613de0565b600060148581548110610a0c57610a0c613e23565b9060005260206000209060050201905080600001548160010154610a309190613e4f565b841115610a7f5760405162461bcd60e51b815260206004820181905260248201527f52414952204552433732313a20496e76616c696420746f6b656e20696e646578604482015260640161086f565b610a9886858360000154610a939190613e66565b612628565b6000858152600c602052604090208154610ab3908690613e66565b8154600181018355600092835260208320015581548691600d91610ad8908890613e66565b815260200190815260200160002081905550806002016000815480929190610aff90613e7e565b9091555060009050805b6004830154811015610cd7578254610b22908790613e66565b6013846004018381548110610b3957610b39613e23565b906000526020600020015481548110610b5457610b54613e23565b90600052602060002090600402016000015411158015610bc357508254610b7c908790613e66565b6013846004018381548110610b9357610b93613e23565b906000526020600020015481548110610bae57610bae613e23565b90600052602060002090600402016001015410155b15610cc5576013836004018281548110610bdf57610bdf613e23565b906000526020600020015481548110610bfa57610bfa613e23565b90600052602060002090600402019150826004018181548110610c1f57610c1f613e23565b9060005260206000200154600e6000888660000154610c3e9190613e66565b8152602081019190915260400160002055600282015415610cc057600282018054906000610c6b83613e7e565b90915550506002820154610cc05781546001830154604080518a815260208101939093528201527fd3edbeb94dfb8eadcd8c291774b9ac3cc9b06af829273e295bf3197849934b889060600160405180910390a15b610cd7565b80610ccf81613e95565b915050610b09565b506002820154610d1d57857f7118e1ae63262db55027a75ee525791f482e7fdf6c2ccb6c11528bf1652780e183600301604051610d149190613f50565b60405180910390a25b50505050505050565b600080516020614282833981519152610d3e8161261b565b60145485908110610d615760405162461bcd60e51b815260040161086f90613de0565b600060148781548110610d7657610d76613e23565b906000526020600020906005020190508060010154858260000154610d9b9190613e66565b1115610df35760405162461bcd60e51b815260206004820152602160248201527f52414952204552433732313a20496e76616c696420656e64696e6720746f6b656044820152603760f91b606482015260840161086f565b80546001820154610e049190613e4f565b610e0e8787613e4f565b1115610e665760405162461bcd60e51b815260206004820152602160248201527f52414952204552433732313a20496e76616c696420746f6b656e206c696d69746044820152607360f81b606482015260840161086f565b83610e718787613e4f565b610e7c906001613e66565b1015610ee05760405162461bcd60e51b815260206004820152602d60248201527f52414952204552433732313a20496e76616c6964206e756d626572206f66207460448201526c6f6b656e7320746f206c6f636b60981b606482015260840161086f565b610eeb878787611324565b610f375760405162461bcd60e51b815260206004820152601f60248201527f52414952204552433732313a2043616e6e6f7420637265617465206c6f636b00604482015260640161086f565b60138054600181018255600091909152815460049091027f66de8ffda797e3de9c05e8fc57b3bf0ec28a930d40b0d285d93c06501cf6a0900190610f7c908890613e66565b81558154610f8b908790613e66565b60018083019190915560028201869055600382018990556013546004840191610fb391613e4f565b8154600181018355600092835260209092209091015581547f31677189d834d986e226e646cd121f117815e9bf4992c19728ca028f2ee542e6908990610ffa908a90613e66565b8454611007908a90613e66565b6013548990600388019061101d90600190613e4f565b60405161102f96959493929190613f63565b60405180910390a15050505050505050565b6000805160206142828339815191526110598161261b565b600084815260106020526040902061107290848461367b565b507f483621391b5e72d74eb03c7b5715531c486e326fb115ab3bcf34b133041854ce8484846040516110a693929190613fca565b60405180910390a150505050565b6110be3382612642565b6110da5760405162461bcd60e51b815260040161086f90613fed565b6109a5838383612718565b600c602052816000526040600020818154811061110157600080fd5b90600052602060002001600091509150505481565b6000818152600d6020908152604080832054600e90925282205460138054909190811061114557611145613e23565b90600052602060002090600402016003015414801561076257506000828152600e602052604081205460138054909190811061118357611183613e23565b9060005260206000209060040201600201541192915050565b6000806111b86000805160206142828339815191526000611b48565b601554620186a0906111d590600160a01b900461ffff168661403e565b6111df9190614073565b915091505b9250929050565b6000828152600a60205260409020600101546112068161261b565b6109a583836128bf565b600061121b836118ea565b821061127d5760405162461bcd60e51b815260206004820152602b60248201527f455243373231456e756d657261626c653a206f776e657220696e646578206f7560448201526a74206f6620626f756e647360a81b606482015260840161086f565b506001600160a01b03919091166000908152600660209081526040808320938352929052205490565b6001600160a01b03811633146113165760405162461bcd60e51b815260206004820152602f60248201527f416363657373436f6e74726f6c3a2063616e206f6e6c792072656e6f756e636560448201526e103937b632b9903337b91039b2b63360891b606482015260840161086f565b61132082826128e1565b5050565b6000806014858154811061133a5761133a613e23565b906000526020600020906005020190508060000154816001015461135e9190613e4f565b84118061137a5750805460018201546113779190613e4f565b83115b15611389576000915050611523565b60005b600482015481101561151c5781546113a5908690613e66565b60138360040183815481106113bc576113bc613e23565b9060005260206000200154815481106113d7576113d7613e23565b90600052602060002090600402016000015411158015611446575081546113ff908690613e66565b601383600401838154811061141657611416613e23565b90600052602060002001548154811061143157611431613e23565b90600052602060002090600402016001015410155b806114fa57508154611459908590613e66565b601383600401838154811061147057611470613e23565b90600052602060002001548154811061148b5761148b613e23565b906000526020600020906004020160000154111580156114fa575081546114b3908590613e66565b60138360040183815481106114ca576114ca613e23565b9060005260206000200154815481106114e5576114e5613e23565b90600052602060002090600402016001015410155b1561150a57600092505050611523565b8061151481613e95565b91505061138c565b5060019150505b9392505050565b6109a583838360405180602001604052806000815250611bfb565b60008051602061428283398151915261155d8161261b565b817fa109ba539900bf1b633f956d63c96fc89b814c7287f7aa50a9216d0b5565720761158884612110565b604051611595919061382c565b60405180910390a25050565b60006115ac60085490565b821061160f5760405162461bcd60e51b815260206004820152602c60248201527f455243373231456e756d657261626c653a20676c6f62616c20696e646578206f60448201526b7574206f6620626f756e647360a01b606482015260840161086f565b6008828154811061162257611622613e23565b90600052602060002001549050919050565b60008051602061428283398151915261164c8161261b565b611658600f848461367b565b507f5411e8ebf1636d9e83d5fc4900bf80cbac82e8790da2a4c94db4895e889eedf6838360405161168a929190614087565b60405180910390a1505050565b6000818152600260205260408120546001600160a01b0316806107625760405162461bcd60e51b815260206004820152602960248201527f4552433732313a206f776e657220717565727920666f72206e6f6e657869737460448201526832b73a103a37b5b2b760b91b606482015260840161086f565b6000806014858154811061172457611724613e23565b90600052602060002090600502016040518060a001604052908160008201548152602001600182015481526020016002820154815260200160038201805461176b90613da5565b80601f016020809104026020016040519081016040528092919081815260200182805461179790613da5565b80156117e45780601f106117b9576101008083540402835291602001916117e4565b820191906000526020600020905b8154815290600101906020018083116117c757829003601f168201915b505050505081526020016004820180548060200260200160405190810160405280929190818152602001828054801561183c57602002820191906000526020600020905b815481526020019060010190808311611828575b505050505081525050905080602001516000146118dc5760005b61185f876118ea565b8110156118da5760006118728883611210565b6000818152600d60205260409020549091508714801561189e5750825161189a908790613e66565b8110155b80156118b6575082516118b2908690613e66565b8111155b156118c757600193505050506118e2565b50806118d281613e95565b915050611856565b505b60009150505b949350505050565b60006001600160a01b0382166119555760405162461bcd60e51b815260206004820152602a60248201527f4552433732313a2062616c616e636520717565727920666f7220746865207a65604482015269726f206164647265737360b01b606482015260840161086f565b506001600160a01b031660009081526003602052604090205490565b60008060008060006013868154811061198c5761198c613e23565b90600052602060002090600402016040518060800160405290816000820154815260200160018201548152602001600282015481526020016003820154815250509050600060148260600151815481106119e8576119e8613e23565b90600052602060002090600502016040518060a0016040529081600082015481526020016001820154815260200160028201548152602001600382018054611a2f90613da5565b80601f0160208091040260200160405190810160405280929190818152602001828054611a5b90613da5565b8015611aa85780601f10611a7d57610100808354040283529160200191611aa8565b820191906000526020600020905b815481529060010190602001808311611a8b57829003601f168201915b5050505050815260200160048201805480602002602001604051908101604052809291908181526020018280548015611b0057602002820191906000526020600020905b815481526020019060010190808311611aec575b50505091909252505081518451929350611b1c92909150613e4f565b81516020840151611b2d9190613e4f565b83604001518460600151955095509550955050509193509193565b6000828152600b602052604081206115239083612903565b6000918252600a602090815260408084206001600160a01b0393909316845291905290205460ff1690565b600080516020614282833981519152611ba38161261b565b611baf6012848461367b565b507fd5ee5eaf65263bab5d569890714d123ad48a9e54409d35e71d374f3dd300bba0838360405161168a929190614087565b60606001805461077790613da5565b61132033838361290f565b611c053383612642565b611c215760405162461bcd60e51b815260040161086f90613fed565b611c2d848484846129de565b50505050565b6000806000606080600060148781548110611c5057611c50613e23565b90600052602060002090600502016040518060a0016040529081600082015481526020016001820154815260200160028201548152602001600382018054611c9790613da5565b80601f0160208091040260200160405190810160405280929190818152602001828054611cc390613da5565b8015611d105780601f10611ce557610100808354040283529160200191611d10565b820191906000526020600020905b815481529060010190602001808311611cf357829003601f168201915b5050505050815260200160048201805480602002602001604051908101604052809291908181526020018280548015611d6857602002820191906000526020600020905b815481526020019060010190808311611d54575b5050509190925250508151602083015160408401516060850151608090950151929c919b5099509297509550909350505050565b6000838060148054905011611dc35760405162461bcd60e51b815260040161086f90613de0565b600060148681548110611dd857611dd8613e23565b90600052602060002090600502016040518060a0016040529081600082015481526020016001820154815260200160028201548152602001600382018054611e1f90613da5565b80601f0160208091040260200160405190810160405280929190818152602001828054611e4b90613da5565b8015611e985780601f10611e6d57610100808354040283529160200191611e98565b820191906000526020600020905b815481529060010190602001808311611e7b57829003601f168201915b5050505050815260200160048201805480602002602001604051908101604052809291908181526020018280548015611ef057602002820191906000526020600020905b815481526020019060010190808311611edc575b50505050508152505090506000858260000151611f0d9190613e66565b90505b8151611f1d908690613e66565b8111611f66576000818152600260205260409020546001600160a01b0316611f54578151611f4b9082613e4f565b93505050611fd5565b80611f5e81613e95565b915050611f10565b5060405162461bcd60e51b815260206004820152603960248201527f52414952204552433732313a20546865726520617265206e6f20617661696c6160448201527f626c6520746f6b656e7320696e20746869732072616e67652e00000000000000606482015260840161086f565b509392505050565b6000818152600d602052604081205460148054909190811061200157612001613e23565b906000526020600020906005020160000154826107629190613e4f565b6000805160206142828339815191526120368161261b565b8382146120ab5760405162461bcd60e51b815260206004820152603b60248201527f52414952204552433732313a20546f6b656e2049447320616e6420555249732060448201527f73686f756c642068617665207468652073616d65206c656e6774680000000000606482015260840161086f565b60005b84811015612108576120f68686838181106120cb576120cb613e23565b905060200201358585848181106120e4576120e4613e23565b90506020028101906103e9919061409b565b8061210081613e95565b9150506120ae565b505050505050565b60008181526010602052604081208054606092919061212e90613da5565b80601f016020809104026020016040519081016040528092919081815260200182805461215a90613da5565b80156121a75780601f1061217c576101008083540402835291602001916121a7565b820191906000526020600020905b81548152906001019060200180831161218a57829003601f168201915b505050505090506000815111156121be5792915050565b6000838152600d602090815260408083205483526011909152902080546121e490613da5565b80601f016020809104026020016040519081016040528092919081815260200182805461221090613da5565b801561225d5780601f106122325761010080835404028352916020019161225d565b820191906000526020600020905b81548152906001019060200180831161224057829003601f168201915b505050505090506000815111156122a8578061228061227b85611fdd565b612a11565b6040516020016122919291906140e2565b604051602081830303815290604052915050919050565b61152383612b0f565b6000818152600b6020526040812061076290612bc2565b6000805160206142828339815191526122e08161261b565b60008481526011602052604090206122f990848461367b565b507f658b273d88cb66d5790b2e0cb1510b48ab78d39cba1c9cad2df51068c42c607c8484846040516110a693929190613fca565b6000828152600a60205260409020600101546123488161261b565b6109a583836128e1565b60606012805461077790613da5565b6000805160206142828339815191526123798161261b565b601454600090156123c7576014805461239490600190613e4f565b815481106123a4576123a4613e23565b90600052602060002090600502016001015460016123c29190613e66565b6123ca565b60005b60148054600181810183556000929092526005027fce6d7b5282bd9a3661ae061feed1dbda4e52ab073b1f9285be6e155d9c38d4ec018281559192506124108584613e66565b61241a9190613e4f565b6001820155845161243490600383019060208801906136ff565b506002810184905560145461244b90600190613e4f565b7f8d3d82130aebba03bb48b5d158bc2bbb4647856765b1089e7250507307965af986848760405161247e93929190614111565b60405180910390a25050505050565b60006124b97f872340a532bdd7bb02bea115c1b0f1ba87eac982f5b79b51ac189ffaac1b6fce83611b60565b8061152357506001600160a01b0380841660009081526005602090815260408083209386168352929052205460ff16611523565b6124f78282611b60565b611320576000828152600a602090815260408083206001600160a01b03851684529091529020805460ff1916600117905561252f3390565b6001600160a01b0316816001600160a01b0316837f2f8788117e7eff1d82e926ec794901d17c78024a50270940304540a733656f0d60405160405180910390a45050565b6000611523836001600160a01b038416612bcc565b60006001600160e01b03198216635a05180f60e01b1480610762575061076282612c1b565b600081815260046020526040902080546001600160a01b0319166001600160a01b03841690811790915581906125e282611697565b6001600160a01b03167f8c5be1e5ebec7d5bd14f71427d1e84f3dd0314c0f7b2291e5b200ac8c7c3b92560405160405180910390a45050565b6126258133612c40565b50565b611320828260405180602001604052806000815250612ca4565b6000818152600260205260408120546001600160a01b03166126bb5760405162461bcd60e51b815260206004820152602c60248201527f4552433732313a206f70657261746f7220717565727920666f72206e6f6e657860448201526b34b9ba32b73a103a37b5b2b760a11b606482015260840161086f565b60006126c683611697565b9050806001600160a01b0316846001600160a01b031614806126ed57506126ed818561248d565b806118e25750836001600160a01b0316612706846107fa565b6001600160a01b031614949350505050565b826001600160a01b031661272b82611697565b6001600160a01b03161461278f5760405162461bcd60e51b815260206004820152602560248201527f4552433732313a207472616e736665722066726f6d20696e636f72726563742060448201526437bbb732b960d91b606482015260840161086f565b6001600160a01b0382166127f15760405162461bcd60e51b8152602060048201526024808201527f4552433732313a207472616e7366657220746f20746865207a65726f206164646044820152637265737360e01b606482015260840161086f565b6127fc838383612cd7565b6128076000826125ad565b6001600160a01b0383166000908152600360205260408120805460019290612830908490613e4f565b90915550506001600160a01b038216600090815260036020526040812080546001929061285e908490613e66565b909155505060008181526002602052604080822080546001600160a01b0319166001600160a01b0386811691821790925591518493918716917fddf252ad1be2c89b69c2b068fc378daa952ba7f163c4a11628f55a4df523b3ef91a4505050565b6128c982826124ed565b6000828152600b602052604090206109a59082612573565b6128eb8282612e31565b6000828152600b602052604090206109a59082612e98565b60006115238383612ead565b816001600160a01b0316836001600160a01b031614156129715760405162461bcd60e51b815260206004820152601960248201527f4552433732313a20617070726f766520746f2063616c6c657200000000000000604482015260640161086f565b6001600160a01b03838116600081815260056020908152604080832094871680845294825291829020805460ff191686151590811790915591519182527f17307eab39ab6107e8899845ad3d59bd9653f200f220920489ca2b5937696c31910160405180910390a3505050565b6129e9848484612718565b6129f584848484612ed7565b611c2d5760405162461bcd60e51b815260040161086f90614136565b606081612a355750506040805180820190915260018152600360fc1b602082015290565b8160005b8115612a5f5780612a4981613e95565b9150612a589050600a83614073565b9150612a39565b60008167ffffffffffffffff811115612a7a57612a7a613b00565b6040519080825280601f01601f191660200182016040528015612aa4576020820181803683370190505b5090505b84156118e257612ab9600183613e4f565b9150612ac6600a86614188565b612ad1906030613e66565b60f81b818381518110612ae657612ae6613e23565b60200101906001600160f81b031916908160001a905350612b08600a86614073565b9450612aa8565b6000818152600260205260409020546060906001600160a01b0316612b8e5760405162461bcd60e51b815260206004820152602f60248201527f4552433732314d657461646174613a2055524920717565727920666f72206e6f60448201526e3732bc34b9ba32b73a103a37b5b2b760891b606482015260840161086f565b6000612b98612fd2565b90506000815111612bb85760405180602001604052806000815250611523565b8061228084612a11565b6000610762825490565b6000818152600183016020526040812054612c1357508154600181810184556000848152602080822090930184905584548482528286019093526040902091909155610762565b506000610762565b60006001600160e01b03198216637965db0b60e01b1480610762575061076282612fe1565b612c4a8282611b60565b61132057612c62816001600160a01b03166014613006565b612c6d836020613006565b604051602001612c7e92919061419c565b60408051601f198184030181529082905262461bcd60e51b825261086f9160040161382c565b612cae83836131a2565b612cbb6000848484612ed7565b6109a55760405162461bcd60e51b815260040161086f90614136565b6001600160a01b03831615801590612cf757506001600160a01b03821615155b15612e265760135415801590612d4c57506000818152600d6020908152604080832054600e90925290912054601380549091908110612d3857612d38613e23565b906000526020600020906004020160030154145b15612dfc576000818152600e6020526040902054601380549091908110612d7557612d75613e23565b906000526020600020906004020160020154600014612dfc5760405162461bcd60e51b815260206004820152603a60248201527f52414952204552433732313a205472616e736665727320666f7220746869732060448201527f72616e6765206172652063757272656e746c79206c6f636b6564000000000000606482015260840161086f565b612e267f872340a532bdd7bb02bea115c1b0f1ba87eac982f5b79b51ac189ffaac1b6fce33612c40565b6109a58383836132f0565b612e3b8282611b60565b15611320576000828152600a602090815260408083206001600160a01b0385168085529252808320805460ff1916905551339285917ff6391f5c32d9c69d2a47ea670b442974b53935d1edc7fd64eb21e047a839171b9190a45050565b6000611523836001600160a01b0384166133a8565b6000826000018281548110612ec457612ec4613e23565b9060005260206000200154905092915050565b60006001600160a01b0384163b15612fca57604051630a85bd0160e11b81526001600160a01b0385169063150b7a0290612f1b903390899088908890600401614211565b6020604051808303816000875af1925050508015612f56575060408051601f3d908101601f19168201909252612f539181019061424e565b60015b612fb0573d808015612f84576040519150601f19603f3d011682016040523d82523d6000602084013e612f89565b606091505b508051612fa85760405162461bcd60e51b815260040161086f90614136565b805181602001fd5b6001600160e01b031916630a85bd0160e11b1490506118e2565b5060016118e2565b6060600f805461077790613da5565b60006001600160e01b0319821663780e9d6360e01b148061076257506107628261349b565b6060600061301583600261403e565b613020906002613e66565b67ffffffffffffffff81111561303857613038613b00565b6040519080825280601f01601f191660200182016040528015613062576020820181803683370190505b509050600360fc1b8160008151811061307d5761307d613e23565b60200101906001600160f81b031916908160001a905350600f60fb1b816001815181106130ac576130ac613e23565b60200101906001600160f81b031916908160001a90535060006130d084600261403e565b6130db906001613e66565b90505b6001811115613153576f181899199a1a9b1b9c1cb0b131b232b360811b85600f166010811061310f5761310f613e23565b1a60f81b82828151811061312557613125613e23565b60200101906001600160f81b031916908160001a90535060049490941c9361314c81613e7e565b90506130de565b5083156115235760405162461bcd60e51b815260206004820181905260248201527f537472696e67733a20686578206c656e67746820696e73756666696369656e74604482015260640161086f565b6001600160a01b0382166131f85760405162461bcd60e51b815260206004820181905260248201527f4552433732313a206d696e7420746f20746865207a65726f2061646472657373604482015260640161086f565b6000818152600260205260409020546001600160a01b03161561325d5760405162461bcd60e51b815260206004820152601c60248201527f4552433732313a20746f6b656e20616c7265616479206d696e74656400000000604482015260640161086f565b61326960008383612cd7565b6001600160a01b0382166000908152600360205260408120805460019290613292908490613e66565b909155505060008181526002602052604080822080546001600160a01b0319166001600160a01b03861690811790915590518392907fddf252ad1be2c89b69c2b068fc378daa952ba7f163c4a11628f55a4df523b3ef908290a45050565b6001600160a01b03831661334b5761334681600880546000838152600960205260408120829055600182018355919091527ff3f7a9fe364faab93b216da50a3214154f22a0a2b415b23a84c8169e8b636ee30155565b61336e565b816001600160a01b0316836001600160a01b03161461336e5761336e83826134eb565b6001600160a01b038216613385576109a581613588565b826001600160a01b0316826001600160a01b0316146109a5576109a58282613637565b600081815260018301602052604081205480156134915760006133cc600183613e4f565b85549091506000906133e090600190613e4f565b905081811461344557600086600001828154811061340057613400613e23565b906000526020600020015490508087600001848154811061342357613423613e23565b6000918252602080832090910192909255918252600188019052604090208390555b85548690806134565761345661426b565b600190038181906000526020600020016000905590558560010160008681526020019081526020016000206000905560019350505050610762565b6000915050610762565b60006001600160e01b031982166380ac58cd60e01b14806134cc57506001600160e01b03198216635b5e139f60e01b145b8061076257506301ffc9a760e01b6001600160e01b0319831614610762565b600060016134f8846118ea565b6135029190613e4f565b600083815260076020526040902054909150808214613555576001600160a01b03841660009081526006602090815260408083208584528252808320548484528184208190558352600790915290208190555b5060009182526007602090815260408084208490556001600160a01b039094168352600681528383209183525290812055565b60085460009061359a90600190613e4f565b600083815260096020526040812054600880549394509092849081106135c2576135c2613e23565b9060005260206000200154905080600883815481106135e3576135e3613e23565b600091825260208083209091019290925582815260099091526040808220849055858252812055600880548061361b5761361b61426b565b6001900381819060005260206000200160009055905550505050565b6000613642836118ea565b6001600160a01b039093166000908152600660209081526040808320868452825280832085905593825260079052919091209190915550565b82805461368790613da5565b90600052602060002090601f0160209004810192826136a957600085556136ef565b82601f106136c25782800160ff198235161785556136ef565b828001600101855582156136ef579182015b828111156136ef5782358255916020019190600101906136d4565b506136fb929150613773565b5090565b82805461370b90613da5565b90600052602060002090601f01602090048101928261372d57600085556136ef565b82601f1061374657805160ff19168380011785556136ef565b828001600101855582156136ef579182015b828111156136ef578251825591602001919060010190613758565b5b808211156136fb5760008155600101613774565b6001600160e01b03198116811461262557600080fd5b6000602082840312156137b057600080fd5b813561152381613788565b6000602082840312156137cd57600080fd5b5035919050565b60005b838110156137ef5781810151838201526020016137d7565b83811115611c2d5750506000910152565b600081518084526138188160208601602086016137d4565b601f01601f19169290920160200192915050565b6020815260006115236020830184613800565b80356001600160a01b038116811461385657600080fd5b919050565b6000806040838503121561386e57600080fd5b6138778361383f565b946020939093013593505050565b60008060006060848603121561389a57600080fd5b6138a38461383f565b95602085013595506040909401359392505050565b600080600080608085870312156138ce57600080fd5b5050823594602084013594506040840135936060013592509050565b60008083601f8401126138fc57600080fd5b50813567ffffffffffffffff81111561391457600080fd5b6020830191508360208285010111156111e457600080fd5b60008060006040848603121561394157600080fd5b83359250602084013567ffffffffffffffff81111561395f57600080fd5b61396b868287016138ea565b9497909650939450505050565b60008060006060848603121561398d57600080fd5b6139968461383f565b92506139a46020850161383f565b9150604084013590509250925092565b600080604083850312156139c757600080fd5b50508035926020909101359150565b600080604083850312156139e957600080fd5b823591506139f96020840161383f565b90509250929050565b600080600060608486031215613a1757600080fd5b505081359360208301359350604090920135919050565b60008060208385031215613a4157600080fd5b823567ffffffffffffffff811115613a5857600080fd5b613a64858286016138ea565b90969095509350505050565b60008060008060808587031215613a8657600080fd5b613a8f8561383f565b966020860135965060408601359560600135945092505050565b600060208284031215613abb57600080fd5b6115238261383f565b60008060408385031215613ad757600080fd5b613ae08361383f565b915060208301358015158114613af557600080fd5b809150509250929050565b634e487b7160e01b600052604160045260246000fd5b600067ffffffffffffffff80841115613b3157613b31613b00565b604051601f8501601f19908116603f01168101908282118183101715613b5957613b59613b00565b81604052809350858152868686011115613b7257600080fd5b858560208301376000602087830101525050509392505050565b60008060008060808587031215613ba257600080fd5b613bab8561383f565b9350613bb96020860161383f565b925060408501359150606085013567ffffffffffffffff811115613bdc57600080fd5b8501601f81018713613bed57600080fd5b613bfc87823560208401613b16565b91505092959194509250565b85815260006020868184015285604084015260a06060840152613c2e60a0840186613800565b838103608085015284518082528286019183019060005b81811015613c6157835183529284019291840191600101613c45565b50909a9950505050505050505050565b60008083601f840112613c8357600080fd5b50813567ffffffffffffffff811115613c9b57600080fd5b6020830191508360208260051b85010111156111e457600080fd5b60008060008060408587031215613ccc57600080fd5b843567ffffffffffffffff80821115613ce457600080fd5b613cf088838901613c71565b90965094506020870135915080821115613d0957600080fd5b50613d1687828801613c71565b95989497509550505050565b60008060408385031215613d3557600080fd5b823567ffffffffffffffff811115613d4c57600080fd5b8301601f81018513613d5d57600080fd5b613d6c85823560208401613b16565b95602094909401359450505050565b60008060408385031215613d8e57600080fd5b613d978361383f565b91506139f96020840161383f565b600181811c90821680613db957607f821691505b60208210811415613dda57634e487b7160e01b600052602260045260246000fd5b50919050565b60208082526023908201527f52414952204552433732313a2050726f6475637420646f6573206e6f742065786040820152621a5cdd60ea1b606082015260800190565b634e487b7160e01b600052603260045260246000fd5b634e487b7160e01b600052601160045260246000fd5b600082821015613e6157613e61613e39565b500390565b60008219821115613e7957613e79613e39565b500190565b600081613e8d57613e8d613e39565b506000190190565b6000600019821415613ea957613ea9613e39565b5060010190565b8054600090600181811c9080831680613eca57607f831692505b6020808410821415613eec57634e487b7160e01b600052602260045260246000fd5b83885260208801828015613f075760018114613f1857613f43565b60ff19871682528282019750613f43565b60008981526020902060005b87811015613f3d57815484820152908601908401613f24565b83019850505b5050505050505092915050565b6020815260006115236020830184613eb0565b86815285602082015284604082015283606082015260c060808201526000613f8e60c0830185613eb0565b90508260a0830152979650505050505050565b81835281816020850137506000828201602090810191909152601f909101601f19169091010190565b838152604060208201526000613fe4604083018486613fa1565b95945050505050565b60208082526031908201527f4552433732313a207472616e736665722063616c6c6572206973206e6f74206f6040820152701ddb995c881b9bdc88185c1c1c9bdd9959607a1b606082015260800190565b600081600019048311821515161561405857614058613e39565b500290565b634e487b7160e01b600052601260045260246000fd5b6000826140825761408261405d565b500490565b6020815260006118e2602083018486613fa1565b6000808335601e198436030181126140b257600080fd5b83018035915067ffffffffffffffff8211156140cd57600080fd5b6020019150368190038213156111e457600080fd5b600083516140f48184602088016137d4565b8351908301906141088183602088016137d4565b01949350505050565b6060815260006141246060830186613800565b60208301949094525060400152919050565b60208082526032908201527f4552433732313a207472616e7366657220746f206e6f6e20455243373231526560408201527131b2b4bb32b91034b6b83632b6b2b73a32b960711b606082015260800190565b6000826141975761419761405d565b500690565b7f416363657373436f6e74726f6c3a206163636f756e74200000000000000000008152600083516141d48160178501602088016137d4565b7001034b99036b4b9b9b4b733903937b6329607d1b60179184019182015283516142058160288401602088016137d4565b01602801949350505050565b6001600160a01b038581168252841660208201526040810183905260806060820181905260009061424490830184613800565b9695505050505050565b60006020828403121561426057600080fd5b815161152381613788565b634e487b7160e01b600052603160045260246000fdfe3c2519c4487d47714872f92cf90a50c25f5deaec2789dc2a497b1272df611db6a26469706673582212205a67a5a9a394cb957c500738b545b09cd7fb62a493dc379269d65c8935f0916664736f6c634300080a00333c2519c4487d47714872f92cf90a50c25f5deaec2789dc2a497b1272df611db6f0887ba65ee2024ea881d91b74c2450ef19e1557f03bed3ea9f16b037cbe2dc9872340a532bdd7bb02bea115c1b0f1ba87eac982f5b79b51ac189ffaac1b6fce6270edb7c868f86fda4adedba75108201087268ea345934db8bad688e1feb91be33cd123f09d9a4e3b34162dcaba99ee0b73fe748beb8ca15f84a66b0c147230a2646970667358221220b9507ce59015516ae3bae54f675d70e87295fd72524cc4633aef728f331f727964736f6c634300080a00336270edb7c868f86fda4adedba75108201087268ea345934db8bad688e1feb91be33cd123f09d9a4e3b34162dcaba99ee0b73fe748beb8ca15f84a66b0c147230",
  "devdoc": {
    "author": "Juan M. Sanchez M.",
    "details": "Uses AccessControl for the reception of ERC777 tokens!",
    "kind": "dev",
    "methods": {
      "add777Token(address,uint256)": {
        "params": {
          "_erc777Address": "Address of the new Token"
        }
      },
      "constructor": {
        "params": {
          "_pricePerToken": "Tokens required for the deployment",
          "_rairAddress": "Address of the primary ERC777 contract (RAIR contract)"
        }
      },
      "getContractCountOf(address)": {
        "details": "Use alongside ownerToContracts for the full list of tokens ",
        "params": {
          "deployer": "Wallet address to query"
        }
      },
      "getRoleAdmin(bytes32)": {
        "details": "Returns the admin role that controls `role`. See {grantRole} and {revokeRole}. To change a role's admin, use {_setRoleAdmin}."
      },
      "getRoleMember(bytes32,uint256)": {
        "details": "Returns one of the accounts that have `role`. `index` must be a value between 0 and {getRoleMemberCount}, non-inclusive. Role bearers are not sorted in any particular way, and their ordering may change at any point. WARNING: When using {getRoleMember} and {getRoleMemberCount}, make sure you perform all queries on the same block. See the following https://forum.openzeppelin.com/t/iterating-over-elements-on-enumerableset-in-openzeppelin-contracts/2296[forum post] for more information."
      },
      "getRoleMemberCount(bytes32)": {
        "details": "Returns the number of accounts that have `role`. Can be used together with {getRoleMember} to enumerate all bearers of a role."
      },
      "grantRole(bytes32,address)": {
        "details": "Grants `role` to `account`. If `account` had not been already granted `role`, emits a {RoleGranted} event. Requirements: - the caller must have ``role``'s admin role."
      },
      "hasRole(bytes32,address)": {
        "details": "Returns `true` if `account` has been granted `role`."
      },
      "remove777Token(address)": {
        "params": {
          "_erc777Address": "Address of the Token"
        }
      },
      "renounceRole(bytes32,address)": {
        "details": "Revokes `role` from the calling account. Roles are often managed via {grantRole} and {revokeRole}: this function's purpose is to provide a mechanism for accounts to lose their privileges if they are compromised (such as when a trusted device is misplaced). If the calling account had been revoked `role`, emits a {RoleRevoked} event. Requirements: - the caller must be `account`."
      },
      "revokeRole(bytes32,address)": {
        "details": "Revokes `role` from `account`. If `account` had been granted `role`, emits a {RoleRevoked} event. Requirements: - the caller must have ``role``'s admin role."
      },
      "supportsInterface(bytes4)": {
        "details": "See {IERC165-supportsInterface}."
      },
      "tokensReceived(address,address,address,uint256,bytes,bytes)": {
        "details": "This is our deployment mechanism for ERC721 contracts!",
        "params": {
          "amount": "The number of tokens sent",
          "from": "The owner of the tokens",
          "operator": "The ERC777 operator calling the send() function",
          "operatorData": "bytes sent from the operator",
          "to": "The recipient of the tokens",
          "userData": "bytes sent from the send call"
        }
      },
      "withdrawTokens(address,uint256)": {
        "details": "If the contract has less than the amount, the ERC777 contract will revertAccessControl makes sure only an OWNER can withdraw",
        "params": {
          "amount": "Amount of tokens to withdraw",
          "erc777": "Address of the ERC777 contract"
        }
      }
    },
    "title": "RAIR ERC721 Factory",
    "version": 1
  },
  "userdoc": {
    "kind": "user",
    "methods": {
      "add777Token(address,uint256)": {
        "notice": "Adds an address to the list of allowed minters"
      },
      "constructor": {
        "notice": "Factory Constructor"
      },
      "getContractCountOf(address)": {
        "notice": "Returns the number of contracts deployed by an address"
      },
      "getCreatorsCount()": {
        "notice": "Returns the number of addresses that have deployed a contract"
      },
      "remove777Token(address)": {
        "notice": "Removes an address from the list of allowed minters"
      },
      "tokensReceived(address,address,address,uint256,bytes,bytes)": {
        "notice": "Function called by an ERC777 when they send tokens"
      },
      "withdrawTokens(address,uint256)": {
        "notice": "Transfers tokens from the factory to any of the OWNER addresses"
      }
    },
    "notice": "Handles the deployment of ERC721 RAIR Tokens",
    "version": 1
  },
  "storageLayout": {
    "storage": [
      {
        "astId": 24,
        "contract": "contracts/RAIR-ERC721_Factory.sol:RAIR_Token_Factory",
        "label": "_roles",
        "offset": 0,
        "slot": "0",
        "type": "t_mapping(t_bytes32,t_struct(RoleData)19_storage)"
      },
      {
        "astId": 338,
        "contract": "contracts/RAIR-ERC721_Factory.sol:RAIR_Token_Factory",
        "label": "_roleMembers",
        "offset": 0,
        "slot": "1",
        "type": "t_mapping(t_bytes32,t_struct(AddressSet)4400_storage)"
      },
      {
        "astId": 7718,
        "contract": "contracts/RAIR-ERC721_Factory.sol:RAIR_Token_Factory",
        "label": "ownerToContracts",
        "offset": 0,
        "slot": "2",
        "type": "t_mapping(t_address,t_array(t_address)dyn_storage)"
      },
      {
        "astId": 7722,
        "contract": "contracts/RAIR-ERC721_Factory.sol:RAIR_Token_Factory",
        "label": "contractToOwner",
        "offset": 0,
        "slot": "3",
        "type": "t_mapping(t_address,t_address)"
      },
      {
        "astId": 7726,
        "contract": "contracts/RAIR-ERC721_Factory.sol:RAIR_Token_Factory",
        "label": "deploymentCostForERC777",
        "offset": 0,
        "slot": "4",
        "type": "t_mapping(t_address,t_uint256)"
      },
      {
        "astId": 7729,
        "contract": "contracts/RAIR-ERC721_Factory.sol:RAIR_Token_Factory",
        "label": "creators",
        "offset": 0,
        "slot": "5",
        "type": "t_array(t_address)dyn_storage"
      }
    ],
    "types": {
      "t_address": {
        "encoding": "inplace",
        "label": "address",
        "numberOfBytes": "20"
      },
      "t_array(t_address)dyn_storage": {
        "base": "t_address",
        "encoding": "dynamic_array",
        "label": "address[]",
        "numberOfBytes": "32"
      },
      "t_array(t_bytes32)dyn_storage": {
        "base": "t_bytes32",
        "encoding": "dynamic_array",
        "label": "bytes32[]",
        "numberOfBytes": "32"
      },
      "t_bool": {
        "encoding": "inplace",
        "label": "bool",
        "numberOfBytes": "1"
      },
      "t_bytes32": {
        "encoding": "inplace",
        "label": "bytes32",
        "numberOfBytes": "32"
      },
      "t_mapping(t_address,t_address)": {
        "encoding": "mapping",
        "key": "t_address",
        "label": "mapping(address => address)",
        "numberOfBytes": "32",
        "value": "t_address"
      },
      "t_mapping(t_address,t_array(t_address)dyn_storage)": {
        "encoding": "mapping",
        "key": "t_address",
        "label": "mapping(address => address[])",
        "numberOfBytes": "32",
        "value": "t_array(t_address)dyn_storage"
      },
      "t_mapping(t_address,t_bool)": {
        "encoding": "mapping",
        "key": "t_address",
        "label": "mapping(address => bool)",
        "numberOfBytes": "32",
        "value": "t_bool"
      },
      "t_mapping(t_address,t_uint256)": {
        "encoding": "mapping",
        "key": "t_address",
        "label": "mapping(address => uint256)",
        "numberOfBytes": "32",
        "value": "t_uint256"
      },
      "t_mapping(t_bytes32,t_struct(AddressSet)4400_storage)": {
        "encoding": "mapping",
        "key": "t_bytes32",
        "label": "mapping(bytes32 => struct EnumerableSet.AddressSet)",
        "numberOfBytes": "32",
        "value": "t_struct(AddressSet)4400_storage"
      },
      "t_mapping(t_bytes32,t_struct(RoleData)19_storage)": {
        "encoding": "mapping",
        "key": "t_bytes32",
        "label": "mapping(bytes32 => struct AccessControl.RoleData)",
        "numberOfBytes": "32",
        "value": "t_struct(RoleData)19_storage"
      },
      "t_mapping(t_bytes32,t_uint256)": {
        "encoding": "mapping",
        "key": "t_bytes32",
        "label": "mapping(bytes32 => uint256)",
        "numberOfBytes": "32",
        "value": "t_uint256"
      },
      "t_struct(AddressSet)4400_storage": {
        "encoding": "inplace",
        "label": "struct EnumerableSet.AddressSet",
        "members": [
          {
            "astId": 4399,
            "contract": "contracts/RAIR-ERC721_Factory.sol:RAIR_Token_Factory",
            "label": "_inner",
            "offset": 0,
            "slot": "0",
            "type": "t_struct(Set)4099_storage"
          }
        ],
        "numberOfBytes": "64"
      },
      "t_struct(RoleData)19_storage": {
        "encoding": "inplace",
        "label": "struct AccessControl.RoleData",
        "members": [
          {
            "astId": 16,
            "contract": "contracts/RAIR-ERC721_Factory.sol:RAIR_Token_Factory",
            "label": "members",
            "offset": 0,
            "slot": "0",
            "type": "t_mapping(t_address,t_bool)"
          },
          {
            "astId": 18,
            "contract": "contracts/RAIR-ERC721_Factory.sol:RAIR_Token_Factory",
            "label": "adminRole",
            "offset": 0,
            "slot": "1",
            "type": "t_bytes32"
          }
        ],
        "numberOfBytes": "64"
      },
      "t_struct(Set)4099_storage": {
        "encoding": "inplace",
        "label": "struct EnumerableSet.Set",
        "members": [
          {
            "astId": 4094,
            "contract": "contracts/RAIR-ERC721_Factory.sol:RAIR_Token_Factory",
            "label": "_values",
            "offset": 0,
            "slot": "0",
            "type": "t_array(t_bytes32)dyn_storage"
          },
          {
            "astId": 4098,
            "contract": "contracts/RAIR-ERC721_Factory.sol:RAIR_Token_Factory",
            "label": "_indexes",
            "offset": 0,
            "slot": "1",
            "type": "t_mapping(t_bytes32,t_uint256)"
          }
        ],
        "numberOfBytes": "64"
      },
      "t_uint256": {
        "encoding": "inplace",
        "label": "uint256",
        "numberOfBytes": "32"
      }
    }
  }
}