{
  "_format": "hh-sol-artifact-1",
  "contractName": "RAIR_ERC721",
  "sourceName": "contracts/Tokens/RAIR-ERC721.sol",
  "abi": [
    {
      "inputs": [
        {
          "internalType": "string",
          "name": "_contractName",
          "type": "string"
        },
        {
          "internalType": "address",
          "name": "_creatorAddress",
          "type": "address"
        },
        {
          "internalType": "uint16",
          "name": "_creatorRoyalty",
          "type": "uint16"
        }
      ],
      "stateMutability": "nonpayable",
      "type": "constructor"
    },
    {
      "anonymous": false,
      "inputs": [
        {
          "indexed": true,
          "internalType": "address",
          "name": "owner",
          "type": "address"
        },
        {
          "indexed": true,
          "internalType": "address",
          "name": "approved",
          "type": "address"
        },
        {
          "indexed": true,
          "internalType": "uint256",
          "name": "tokenId",
          "type": "uint256"
        }
      ],
      "name": "Approval",
      "type": "event"
    },
    {
      "anonymous": false,
      "inputs": [
        {
          "indexed": true,
          "internalType": "address",
          "name": "owner",
          "type": "address"
        },
        {
          "indexed": true,
          "internalType": "address",
          "name": "operator",
          "type": "address"
        },
        {
          "indexed": false,
          "internalType": "bool",
          "name": "approved",
          "type": "bool"
        }
      ],
      "name": "ApprovalForAll",
      "type": "event"
    },
    {
      "anonymous": false,
      "inputs": [
        {
          "indexed": false,
          "internalType": "string",
          "name": "newURI",
          "type": "string"
        }
      ],
      "name": "BaseURIChanged",
      "type": "event"
    },
    {
      "anonymous": false,
      "inputs": [
        {
          "indexed": false,
          "internalType": "string",
          "name": "newURI",
          "type": "string"
        }
      ],
      "name": "ContractURIChanged",
      "type": "event"
    },
    {
      "anonymous": false,
      "inputs": [
        {
          "indexed": false,
          "internalType": "string",
          "name": "_value",
          "type": "string"
        },
        {
          "indexed": true,
          "internalType": "uint256",
          "name": "_id",
          "type": "uint256"
        }
      ],
      "name": "PermanentURI",
      "type": "event"
    },
    {
      "anonymous": false,
      "inputs": [
        {
          "indexed": true,
          "internalType": "uint256",
          "name": "id",
          "type": "uint256"
        },
        {
          "indexed": false,
          "internalType": "string",
          "name": "name",
          "type": "string"
        }
      ],
      "name": "ProductCompleted",
      "type": "event"
    },
    {
      "anonymous": false,
      "inputs": [
        {
          "indexed": true,
          "internalType": "uint256",
          "name": "id",
          "type": "uint256"
        },
        {
          "indexed": false,
          "internalType": "string",
          "name": "name",
          "type": "string"
        },
        {
          "indexed": false,
          "internalType": "uint256",
          "name": "startingToken",
          "type": "uint256"
        },
        {
          "indexed": false,
          "internalType": "uint256",
          "name": "length",
          "type": "uint256"
        }
      ],
      "name": "ProductCreated",
      "type": "event"
    },
    {
      "anonymous": false,
      "inputs": [
        {
          "indexed": false,
          "internalType": "uint256",
          "name": "productId",
          "type": "uint256"
        },
        {
          "indexed": false,
          "internalType": "string",
          "name": "newURI",
          "type": "string"
        }
      ],
      "name": "ProductURIChanged",
      "type": "event"
    },
    {
      "anonymous": false,
      "inputs": [
        {
          "indexed": false,
          "internalType": "uint256",
          "name": "productIndex",
          "type": "uint256"
        },
        {
          "indexed": false,
          "internalType": "uint256",
          "name": "startingToken",
          "type": "uint256"
        },
        {
          "indexed": false,
          "internalType": "uint256",
          "name": "endingToken",
          "type": "uint256"
        },
        {
          "indexed": false,
          "internalType": "uint256",
          "name": "tokensLocked",
          "type": "uint256"
        },
        {
          "indexed": false,
          "internalType": "string",
          "name": "productName",
          "type": "string"
        },
        {
          "indexed": false,
          "internalType": "uint256",
          "name": "lockIndex",
          "type": "uint256"
        }
      ],
      "name": "RangeLocked",
      "type": "event"
    },
    {
      "anonymous": false,
      "inputs": [
        {
          "indexed": false,
          "internalType": "uint256",
          "name": "productID",
          "type": "uint256"
        },
        {
          "indexed": false,
          "internalType": "uint256",
          "name": "startingToken",
          "type": "uint256"
        },
        {
          "indexed": false,
          "internalType": "uint256",
          "name": "endingToken",
          "type": "uint256"
        }
      ],
      "name": "RangeUnlocked",
      "type": "event"
    },
    {
      "anonymous": false,
      "inputs": [
        {
          "indexed": true,
          "internalType": "bytes32",
          "name": "role",
          "type": "bytes32"
        },
        {
          "indexed": true,
          "internalType": "bytes32",
          "name": "previousAdminRole",
          "type": "bytes32"
        },
        {
          "indexed": true,
          "internalType": "bytes32",
          "name": "newAdminRole",
          "type": "bytes32"
        }
      ],
      "name": "RoleAdminChanged",
      "type": "event"
    },
    {
      "anonymous": false,
      "inputs": [
        {
          "indexed": true,
          "internalType": "bytes32",
          "name": "role",
          "type": "bytes32"
        },
        {
          "indexed": true,
          "internalType": "address",
          "name": "account",
          "type": "address"
        },
        {
          "indexed": true,
          "internalType": "address",
          "name": "sender",
          "type": "address"
        }
      ],
      "name": "RoleGranted",
      "type": "event"
    },
    {
      "anonymous": false,
      "inputs": [
        {
          "indexed": true,
          "internalType": "bytes32",
          "name": "role",
          "type": "bytes32"
        },
        {
          "indexed": true,
          "internalType": "address",
          "name": "account",
          "type": "address"
        },
        {
          "indexed": true,
          "internalType": "address",
          "name": "sender",
          "type": "address"
        }
      ],
      "name": "RoleRevoked",
      "type": "event"
    },
    {
      "anonymous": false,
      "inputs": [
        {
          "indexed": false,
          "internalType": "uint256",
          "name": "tokenId",
          "type": "uint256"
        },
        {
          "indexed": false,
          "internalType": "string",
          "name": "newURI",
          "type": "string"
        }
      ],
      "name": "TokenURIChanged",
      "type": "event"
    },
    {
      "anonymous": false,
      "inputs": [
        {
          "indexed": true,
          "internalType": "address",
          "name": "from",
          "type": "address"
        },
        {
          "indexed": true,
          "internalType": "address",
          "name": "to",
          "type": "address"
        },
        {
          "indexed": true,
          "internalType": "uint256",
          "name": "tokenId",
          "type": "uint256"
        }
      ],
      "name": "Transfer",
      "type": "event"
    },
    {
      "inputs": [],
      "name": "CREATOR",
      "outputs": [
        {
          "internalType": "bytes32",
          "name": "",
          "type": "bytes32"
        }
      ],
      "stateMutability": "view",
      "type": "function"
    },
    {
      "inputs": [],
      "name": "DEFAULT_ADMIN_ROLE",
      "outputs": [
        {
          "internalType": "bytes32",
          "name": "",
          "type": "bytes32"
        }
      ],
      "stateMutability": "view",
      "type": "function"
    },
    {
      "inputs": [],
      "name": "MINTER",
      "outputs": [
        {
          "internalType": "bytes32",
          "name": "",
          "type": "bytes32"
        }
      ],
      "stateMutability": "view",
      "type": "function"
    },
    {
      "inputs": [],
      "name": "TRADER",
      "outputs": [
        {
          "internalType": "bytes32",
          "name": "",
          "type": "bytes32"
        }
      ],
      "stateMutability": "view",
      "type": "function"
    },
    {
      "inputs": [
        {
          "internalType": "address",
          "name": "to",
          "type": "address"
        },
        {
          "internalType": "uint256",
          "name": "tokenId",
          "type": "uint256"
        }
      ],
      "name": "approve",
      "outputs": [],
      "stateMutability": "nonpayable",
      "type": "function"
    },
    {
      "inputs": [
        {
          "internalType": "address",
          "name": "owner",
          "type": "address"
        }
      ],
      "name": "balanceOf",
      "outputs": [
        {
          "internalType": "uint256",
          "name": "",
          "type": "uint256"
        }
      ],
      "stateMutability": "view",
      "type": "function"
    },
    {
      "inputs": [
        {
          "internalType": "uint256",
          "name": "productIndex",
          "type": "uint256"
        },
        {
          "internalType": "uint256",
          "name": "startingToken",
          "type": "uint256"
        },
        {
          "internalType": "uint256",
          "name": "endingToken",
          "type": "uint256"
        }
      ],
      "name": "canCreateLock",
      "outputs": [
        {
          "internalType": "bool",
          "name": "canCreate",
          "type": "bool"
        }
      ],
      "stateMutability": "view",
      "type": "function"
    },
    {
      "inputs": [],
      "name": "contractURI",
      "outputs": [
        {
          "internalType": "string",
          "name": "",
          "type": "string"
        }
      ],
      "stateMutability": "view",
      "type": "function"
    },
    {
      "inputs": [
        {
          "internalType": "string",
          "name": "_productName",
          "type": "string"
        },
        {
          "internalType": "uint256",
          "name": "_copies",
          "type": "uint256"
        }
      ],
      "name": "createProduct",
      "outputs": [],
      "stateMutability": "nonpayable",
      "type": "function"
    },
    {
      "inputs": [
        {
          "internalType": "uint256",
          "name": "productIndex",
          "type": "uint256"
        },
        {
          "internalType": "uint256",
          "name": "_startingToken",
          "type": "uint256"
        },
        {
          "internalType": "uint256",
          "name": "_endingToken",
          "type": "uint256"
        },
        {
          "internalType": "uint256",
          "name": "_lockedTokens",
          "type": "uint256"
        }
      ],
      "name": "createRangeLock",
      "outputs": [],
      "stateMutability": "nonpayable",
      "type": "function"
    },
    {
      "inputs": [],
      "name": "factory",
      "outputs": [
        {
          "internalType": "address",
          "name": "",
          "type": "address"
        }
      ],
      "stateMutability": "view",
      "type": "function"
    },
    {
      "inputs": [
        {
          "internalType": "uint256",
          "name": "tokenId",
          "type": "uint256"
        }
      ],
      "name": "freezeMetadata",
      "outputs": [],
      "stateMutability": "nonpayable",
      "type": "function"
    },
    {
      "inputs": [
        {
          "internalType": "uint256",
          "name": "tokenId",
          "type": "uint256"
        }
      ],
      "name": "getApproved",
      "outputs": [
        {
          "internalType": "address",
          "name": "",
          "type": "address"
        }
      ],
      "stateMutability": "view",
      "type": "function"
    },
    {
      "inputs": [
        {
          "internalType": "uint256",
          "name": "index",
          "type": "uint256"
        }
      ],
      "name": "getLockedRange",
      "outputs": [
        {
          "internalType": "uint256",
          "name": "startingToken",
          "type": "uint256"
        },
        {
          "internalType": "uint256",
          "name": "endingToken",
          "type": "uint256"
        },
        {
          "internalType": "uint256",
          "name": "countToUnlock",
          "type": "uint256"
        },
        {
          "internalType": "uint256",
          "name": "productIndex",
          "type": "uint256"
        }
      ],
      "stateMutability": "view",
      "type": "function"
    },
    {
      "inputs": [
        {
          "internalType": "uint256",
          "name": "productID",
          "type": "uint256"
        },
        {
          "internalType": "uint256",
          "name": "startingIndex",
          "type": "uint256"
        },
        {
          "internalType": "uint256",
          "name": "endingIndex",
          "type": "uint256"
        }
      ],
      "name": "getNextSequentialIndex",
      "outputs": [
        {
          "internalType": "uint256",
          "name": "nextIndex",
          "type": "uint256"
        }
      ],
      "stateMutability": "view",
      "type": "function"
    },
    {
      "inputs": [
        {
          "internalType": "uint256",
          "name": "index",
          "type": "uint256"
        }
      ],
      "name": "getProduct",
      "outputs": [
        {
          "internalType": "uint256",
          "name": "startingToken",
          "type": "uint256"
        },
        {
          "internalType": "uint256",
          "name": "endingToken",
          "type": "uint256"
        },
        {
          "internalType": "uint256",
          "name": "mintableTokensLeft",
          "type": "uint256"
        },
        {
          "internalType": "string",
          "name": "productName",
          "type": "string"
        },
        {
          "internalType": "uint256[]",
          "name": "locks",
          "type": "uint256[]"
        }
      ],
      "stateMutability": "view",
      "type": "function"
    },
    {
      "inputs": [],
      "name": "getProductCount",
      "outputs": [
        {
          "internalType": "uint256",
          "name": "",
          "type": "uint256"
        }
      ],
      "stateMutability": "view",
      "type": "function"
    },
    {
      "inputs": [
        {
          "internalType": "bytes32",
          "name": "role",
          "type": "bytes32"
        }
      ],
      "name": "getRoleAdmin",
      "outputs": [
        {
          "internalType": "bytes32",
          "name": "",
          "type": "bytes32"
        }
      ],
      "stateMutability": "view",
      "type": "function"
    },
    {
      "inputs": [
        {
          "internalType": "bytes32",
          "name": "role",
          "type": "bytes32"
        },
        {
          "internalType": "uint256",
          "name": "index",
          "type": "uint256"
        }
      ],
      "name": "getRoleMember",
      "outputs": [
        {
          "internalType": "address",
          "name": "",
          "type": "address"
        }
      ],
      "stateMutability": "view",
      "type": "function"
    },
    {
      "inputs": [
        {
          "internalType": "bytes32",
          "name": "role",
          "type": "bytes32"
        }
      ],
      "name": "getRoleMemberCount",
      "outputs": [
        {
          "internalType": "uint256",
          "name": "",
          "type": "uint256"
        }
      ],
      "stateMutability": "view",
      "type": "function"
    },
    {
      "inputs": [
        {
          "internalType": "bytes32",
          "name": "role",
          "type": "bytes32"
        },
        {
          "internalType": "address",
          "name": "account",
          "type": "address"
        }
      ],
      "name": "grantRole",
      "outputs": [],
      "stateMutability": "nonpayable",
      "type": "function"
    },
    {
      "inputs": [
        {
          "internalType": "bytes32",
          "name": "role",
          "type": "bytes32"
        },
        {
          "internalType": "address",
          "name": "account",
          "type": "address"
        }
      ],
      "name": "hasRole",
      "outputs": [
        {
          "internalType": "bool",
          "name": "",
          "type": "bool"
        }
      ],
      "stateMutability": "view",
      "type": "function"
    },
    {
      "inputs": [
        {
          "internalType": "address",
          "name": "userAddress",
          "type": "address"
        },
        {
          "internalType": "uint256",
          "name": "productIndex",
          "type": "uint256"
        },
        {
          "internalType": "uint256",
          "name": "startingToken",
          "type": "uint256"
        },
        {
          "internalType": "uint256",
          "name": "endingToken",
          "type": "uint256"
        }
      ],
      "name": "hasTokenInProduct",
      "outputs": [
        {
          "internalType": "bool",
          "name": "",
          "type": "bool"
        }
      ],
      "stateMutability": "view",
      "type": "function"
    },
    {
      "inputs": [
        {
          "internalType": "address",
          "name": "owner",
          "type": "address"
        },
        {
          "internalType": "address",
          "name": "operator",
          "type": "address"
        }
      ],
      "name": "isApprovedForAll",
      "outputs": [
        {
          "internalType": "bool",
          "name": "",
          "type": "bool"
        }
      ],
      "stateMutability": "view",
      "type": "function"
    },
    {
      "inputs": [
        {
          "internalType": "uint256",
          "name": "_tokenId",
          "type": "uint256"
        }
      ],
      "name": "isTokenLocked",
      "outputs": [
        {
          "internalType": "bool",
          "name": "",
          "type": "bool"
        }
      ],
      "stateMutability": "view",
      "type": "function"
    },
    {
      "inputs": [
        {
          "internalType": "address",
          "name": "to",
          "type": "address"
        },
        {
          "internalType": "uint256",
          "name": "productId",
          "type": "uint256"
        },
        {
          "internalType": "uint256",
          "name": "indexInProduct",
          "type": "uint256"
        }
      ],
      "name": "mint",
      "outputs": [],
      "stateMutability": "nonpayable",
      "type": "function"
    },
    {
      "inputs": [],
      "name": "name",
      "outputs": [
        {
          "internalType": "string",
          "name": "",
          "type": "string"
        }
      ],
      "stateMutability": "view",
      "type": "function"
    },
    {
      "inputs": [
        {
          "internalType": "uint256",
          "name": "tokenId",
          "type": "uint256"
        }
      ],
      "name": "ownerOf",
      "outputs": [
        {
          "internalType": "address",
          "name": "",
          "type": "address"
        }
      ],
      "stateMutability": "view",
      "type": "function"
    },
    {
      "inputs": [
        {
          "internalType": "bytes32",
          "name": "role",
          "type": "bytes32"
        },
        {
          "internalType": "address",
          "name": "account",
          "type": "address"
        }
      ],
      "name": "renounceRole",
      "outputs": [],
      "stateMutability": "nonpayable",
      "type": "function"
    },
    {
      "inputs": [
        {
          "internalType": "bytes32",
          "name": "role",
          "type": "bytes32"
        },
        {
          "internalType": "address",
          "name": "account",
          "type": "address"
        }
      ],
      "name": "revokeRole",
      "outputs": [],
      "stateMutability": "nonpayable",
      "type": "function"
    },
    {
      "inputs": [
        {
          "internalType": "uint256",
          "name": "_tokenId",
          "type": "uint256"
        },
        {
          "internalType": "uint256",
          "name": "_salePrice",
          "type": "uint256"
        }
      ],
      "name": "royaltyInfo",
      "outputs": [
        {
          "internalType": "address",
          "name": "receiver",
          "type": "address"
        },
        {
          "internalType": "uint256",
          "name": "royaltyAmount",
          "type": "uint256"
        }
      ],
      "stateMutability": "view",
      "type": "function"
    },
    {
      "inputs": [
        {
          "internalType": "address",
          "name": "from",
          "type": "address"
        },
        {
          "internalType": "address",
          "name": "to",
          "type": "address"
        },
        {
          "internalType": "uint256",
          "name": "tokenId",
          "type": "uint256"
        }
      ],
      "name": "safeTransferFrom",
      "outputs": [],
      "stateMutability": "nonpayable",
      "type": "function"
    },
    {
      "inputs": [
        {
          "internalType": "address",
          "name": "from",
          "type": "address"
        },
        {
          "internalType": "address",
          "name": "to",
          "type": "address"
        },
        {
          "internalType": "uint256",
          "name": "tokenId",
          "type": "uint256"
        },
        {
          "internalType": "bytes",
          "name": "_data",
          "type": "bytes"
        }
      ],
      "name": "safeTransferFrom",
      "outputs": [],
      "stateMutability": "nonpayable",
      "type": "function"
    },
    {
      "inputs": [
        {
          "internalType": "address",
          "name": "operator",
          "type": "address"
        },
        {
          "internalType": "bool",
          "name": "approved",
          "type": "bool"
        }
      ],
      "name": "setApprovalForAll",
      "outputs": [],
      "stateMutability": "nonpayable",
      "type": "function"
    },
    {
      "inputs": [
        {
          "internalType": "string",
          "name": "newURI",
          "type": "string"
        }
      ],
      "name": "setBaseURI",
      "outputs": [],
      "stateMutability": "nonpayable",
      "type": "function"
    },
    {
      "inputs": [
        {
          "internalType": "string",
          "name": "newURI",
          "type": "string"
        }
      ],
      "name": "setContractURI",
      "outputs": [],
      "stateMutability": "nonpayable",
      "type": "function"
    },
    {
      "inputs": [
        {
          "internalType": "uint256",
          "name": "productId",
          "type": "uint256"
        },
        {
          "internalType": "string",
          "name": "newURI",
          "type": "string"
        }
      ],
      "name": "setProductURI",
      "outputs": [],
      "stateMutability": "nonpayable",
      "type": "function"
    },
    {
      "inputs": [
        {
          "internalType": "uint256",
          "name": "tokenId",
          "type": "uint256"
        },
        {
          "internalType": "string",
          "name": "newURI",
          "type": "string"
        }
      ],
      "name": "setUniqueURI",
      "outputs": [],
      "stateMutability": "nonpayable",
      "type": "function"
    },
    {
      "inputs": [
        {
          "internalType": "uint256[]",
          "name": "tokenIds",
          "type": "uint256[]"
        },
        {
          "internalType": "string[]",
          "name": "newURIs",
          "type": "string[]"
        }
      ],
      "name": "setUniqueURIBatch",
      "outputs": [],
      "stateMutability": "nonpayable",
      "type": "function"
    },
    {
      "inputs": [
        {
          "internalType": "bytes4",
          "name": "interfaceId",
          "type": "bytes4"
        }
      ],
      "name": "supportsInterface",
      "outputs": [
        {
          "internalType": "bool",
          "name": "",
          "type": "bool"
        }
      ],
      "stateMutability": "view",
      "type": "function"
    },
    {
      "inputs": [],
      "name": "symbol",
      "outputs": [
        {
          "internalType": "string",
          "name": "",
          "type": "string"
        }
      ],
      "stateMutability": "view",
      "type": "function"
    },
    {
      "inputs": [
        {
          "internalType": "uint256",
          "name": "index",
          "type": "uint256"
        }
      ],
      "name": "tokenByIndex",
      "outputs": [
        {
          "internalType": "uint256",
          "name": "",
          "type": "uint256"
        }
      ],
      "stateMutability": "view",
      "type": "function"
    },
    {
      "inputs": [
        {
          "internalType": "uint256",
          "name": "productIndex",
          "type": "uint256"
        }
      ],
      "name": "tokenCountByProduct",
      "outputs": [
        {
          "internalType": "uint256",
          "name": "",
          "type": "uint256"
        }
      ],
      "stateMutability": "view",
      "type": "function"
    },
    {
      "inputs": [
        {
          "internalType": "address",
          "name": "owner",
          "type": "address"
        },
        {
          "internalType": "uint256",
          "name": "index",
          "type": "uint256"
        }
      ],
      "name": "tokenOfOwnerByIndex",
      "outputs": [
        {
          "internalType": "uint256",
          "name": "",
          "type": "uint256"
        }
      ],
      "stateMutability": "view",
      "type": "function"
    },
    {
      "inputs": [
        {
          "internalType": "uint256",
          "name": "",
          "type": "uint256"
        }
      ],
      "name": "tokenToProduct",
      "outputs": [
        {
          "internalType": "uint256",
          "name": "",
          "type": "uint256"
        }
      ],
      "stateMutability": "view",
      "type": "function"
    },
    {
      "inputs": [
        {
          "internalType": "uint256",
          "name": "token",
          "type": "uint256"
        }
      ],
      "name": "tokenToProductIndex",
      "outputs": [
        {
          "internalType": "uint256",
          "name": "tokenIndex",
          "type": "uint256"
        }
      ],
      "stateMutability": "view",
      "type": "function"
    },
    {
      "inputs": [
        {
          "internalType": "uint256",
          "name": "tokenId",
          "type": "uint256"
        }
      ],
      "name": "tokenURI",
      "outputs": [
        {
          "internalType": "string",
          "name": "",
          "type": "string"
        }
      ],
      "stateMutability": "view",
      "type": "function"
    },
    {
      "inputs": [
        {
          "internalType": "uint256",
          "name": "",
          "type": "uint256"
        },
        {
          "internalType": "uint256",
          "name": "",
          "type": "uint256"
        }
      ],
      "name": "tokensByProduct",
      "outputs": [
        {
          "internalType": "uint256",
          "name": "",
          "type": "uint256"
        }
      ],
      "stateMutability": "view",
      "type": "function"
    },
    {
      "inputs": [],
      "name": "totalSupply",
      "outputs": [
        {
          "internalType": "uint256",
          "name": "",
          "type": "uint256"
        }
      ],
      "stateMutability": "view",
      "type": "function"
    },
    {
      "inputs": [
        {
          "internalType": "address",
          "name": "from",
          "type": "address"
        },
        {
          "internalType": "address",
          "name": "to",
          "type": "address"
        },
        {
          "internalType": "uint256",
          "name": "tokenId",
          "type": "uint256"
        }
      ],
      "name": "transferFrom",
      "outputs": [],
      "stateMutability": "nonpayable",
      "type": "function"
    }
  ],
  "bytecode": "0x60806040523480156200001157600080fd5b5060405162004883380380620048838339810160408190526200003491620003f7565b82604051806040016040528060048152602001632920a4a960e11b81525081600090805190602001906200006a9291906200030b565b508051620000809060019060208401906200030b565b5050601580546001600160b01b0319163361ffff60a01b191617600160a01b61ffff85160217905550620000d3600080516020620048438339815191526000805160206200482383398151915262000157565b620000fd600080516020620048638339815191526000805160206200482383398151915262000157565b620001186000805160206200482383398151915283620001a2565b620001336000805160206200484383398151915283620001a2565b6200014e6000805160206200486383398151915283620001a2565b50505062000536565b6000828152600a6020526040808220600101805490849055905190918391839186917fbd79b86ffe0ab8e8776151514217cd7cacd52c909f66475c3af44e129f0b00ff9190a4505050565b620001ae8282620001b2565b5050565b620001c98282620001f560201b620024f21760201c565b6000828152600b60209081526040909120620001f09183906200257862000299821b17901c565b505050565b6000828152600a602090815260408083206001600160a01b038516845290915290205460ff16620001ae576000828152600a602090815260408083206001600160a01b03851684529091529020805460ff19166001179055620002553390565b6001600160a01b0316816001600160a01b0316837f2f8788117e7eff1d82e926ec794901d17c78024a50270940304540a733656f0d60405160405180910390a45050565b6000620002b0836001600160a01b038416620002b9565b90505b92915050565b60008181526001830160205260408120546200030257508154600181810184556000848152602080822090930184905584548482528286019093526040902091909155620002b3565b506000620002b3565b8280546200031990620004fa565b90600052602060002090601f0160209004810192826200033d576000855562000388565b82601f106200035857805160ff191683800117855562000388565b8280016001018555821562000388579182015b82811115620003885782518255916020019190600101906200036b565b50620003969291506200039a565b5090565b5b808211156200039657600081556001016200039b565b634e487b7160e01b600052604160045260246000fd5b80516001600160a01b0381168114620003df57600080fd5b919050565b805161ffff81168114620003df57600080fd5b6000806000606084860312156200040d57600080fd5b83516001600160401b03808211156200042557600080fd5b818601915086601f8301126200043a57600080fd5b8151818111156200044f576200044f620003b1565b604051601f8201601f19908116603f011681019083821181831017156200047a576200047a620003b1565b816040528281526020935089848487010111156200049757600080fd5b600091505b82821015620004bb57848201840151818301850152908301906200049c565b82821115620004cd5760008484830101525b9650620004df915050868201620003c7565b93505050620004f160408501620003e4565b90509250925092565b600181811c908216806200050f57607f821691505b6020821081036200053057634e487b7160e01b600052602260045260246000fd5b50919050565b6142dd80620005466000396000f3fe608060405234801561001057600080fd5b50600436106102d65760003560e01c80636c99dcbf11610182578063c00b83c5116100e9578063d547741f116100a2578063e8a3d4851161007c578063e8a3d485146106e8578063e9300c6c146106f0578063e985e9c514610703578063fe6d81241461071657600080fd5b8063d547741f146106a0578063d76bf566146106b3578063e4fbb609146106d357600080fd5b8063c00b83c51461062e578063c1d78b4a14610641578063c45a015514610654578063c87b56dd14610667578063ca15c8731461067a578063d403bf861461068d57600080fd5b806395d89b411161013b57806395d89b41146105c1578063a217fddf146105c9578063a22cb465146105d1578063b88d4fde146105e4578063b9db15b4146105f7578063bda5ec331461061b57600080fd5b80636c99dcbf1461052f57806370a0823114610542578063876654a0146105555780639010d07c1461058857806391d148541461059b578063938e3d7b146105ae57600080fd5b8063248a9ca3116102415780633d42f206116101fa5780634dcf6ad6116101d45780634dcf6ad6146104e35780634f6ccce7146104f657806355f804b3146105095780636352211e1461051c57600080fd5b80633d42f206146104b557806342842e0e146104c85780634a348da9146104db57600080fd5b8063248a9ca314610414578063276a28a3146104375780632a55205a1461044a5780632f2ff15d1461047c5780632f745c591461048f57806336568abe146104a257600080fd5b806315a182411161029357806315a1824114610399578063175c4ef8146103ac57806318160ddd146103d35780631c899d1a146103db57806323b872dd146103ee57806324704bd71461040157600080fd5b806301ffc9a7146102db5780630301e1e21461030357806306fdde0314610331578063081812fc14610346578063095ea7b314610371578063156e29f614610386575b600080fd5b6102ee6102e93660046137a8565b61073d565b60405190151581526020015b60405180910390f35b6103236103113660046137c5565b6000908152600c602052604090205490565b6040519081526020016102fa565b610339610768565b6040516102fa9190613836565b6103596103543660046137c5565b6107fa565b6040516001600160a01b0390911681526020016102fa565b61038461037f366004613865565b610894565b005b61038461039436600461388f565b6109a9565b6103846103a73660046138c2565b610d2b565b6103237f872340a532bdd7bb02bea115c1b0f1ba87eac982f5b79b51ac189ffaac1b6fce81565b600854610323565b6103846103e9366004613936565b611046565b6103846103fc366004613982565b6110b9565b61032361040f3660046139be565b6110ea565b6103236104223660046137c5565b6000908152600a602052604090206001015490565b6102ee6104453660046137c5565b61111b565b61045d6104583660046139be565b6111a1565b604080516001600160a01b0390931683526020830191909152016102fa565b61038461048a3660046139e0565b6111f0565b61032361049d366004613865565b611215565b6103846104b03660046139e0565b6112ab565b6102ee6104c3366004613a0c565b611329565b6103846104d6366004613982565b61152f565b601454610323565b6103846104f13660046137c5565b61154a565b6103236105043660046137c5565b6115a6565b610384610517366004613a38565b611639565b61035961052a3660046137c5565b61169c565b6102ee61053d366004613a7a565b611713565b610323610550366004613ab3565b6118ef565b6105686105633660046137c5565b611976565b6040805194855260208501939093529183015260608201526080016102fa565b6103596105963660046139be565b611b4d565b6102ee6105a93660046139e0565b611b65565b6103846105bc366004613a38565b611b90565b610339611be6565b610323600081565b6103846105df366004613ace565b611bf5565b6103846105f2366004613b96565b611c00565b61060a6106053660046137c5565b611c38565b6040516102fa959493929190613c12565b610323610629366004613a0c565b611da1565b61032361063c3660046137c5565b611fe2565b61038461064f366004613cc0565b612023565b601554610359906001600160a01b031681565b6103396106753660046137c5565b612115565b6103236106883660046137c5565b6122b6565b61038461069b366004613936565b6122cd565b6103846106ae3660046139e0565b612332565b6103236106c13660046137c5565b600d6020526000908152604090205481565b61032360008051602061428883398151915281565b610339612357565b6103846106fe366004613d2c565b612366565b6102ee610711366004613d85565b612492565b6103237ff0887ba65ee2024ea881d91b74c2450ef19e1557f03bed3ea9f16b037cbe2dc981565b60006001600160e01b03198216632baae9fd60e01b148061076257506107628261258d565b92915050565b60606000805461077790613daf565b80601f01602080910402602001604051908101604052809291908181526020018280546107a390613daf565b80156107f05780601f106107c5576101008083540402835291602001916107f0565b820191906000526020600020905b8154815290600101906020018083116107d357829003601f168201915b5050505050905090565b6000818152600260205260408120546001600160a01b03166108785760405162461bcd60e51b815260206004820152602c60248201527f4552433732313a20617070726f76656420717565727920666f72206e6f6e657860448201526b34b9ba32b73a103a37b5b2b760a11b60648201526084015b60405180910390fd5b506000908152600460205260409020546001600160a01b031690565b600061089f8261169c565b9050806001600160a01b0316836001600160a01b03160361090c5760405162461bcd60e51b815260206004820152602160248201527f4552433732313a20617070726f76616c20746f2063757272656e74206f776e656044820152603960f91b606482015260840161086f565b336001600160a01b038216148061092857506109288133612492565b61099a5760405162461bcd60e51b815260206004820152603860248201527f4552433732313a20617070726f76652063616c6c6572206973206e6f74206f7760448201527f6e6572206e6f7220617070726f76656420666f7220616c6c0000000000000000606482015260840161086f565b6109a483836125b2565b505050565b7ff0887ba65ee2024ea881d91b74c2450ef19e1557f03bed3ea9f16b037cbe2dc96109d381612620565b601454839081106109f65760405162461bcd60e51b815260040161086f90613de9565b600060148581548110610a0b57610a0b613e2c565b9060005260206000209060050201905080600001548160010154610a2f9190613e58565b841115610a7e5760405162461bcd60e51b815260206004820181905260248201527f52414952204552433732313a20496e76616c696420746f6b656e20696e646578604482015260640161086f565b610a9786858360000154610a929190613e6f565b61262d565b6000858152600c602052604090208154610ab2908690613e6f565b8154600181018355600092835260208320015581548691600d91610ad7908890613e6f565b815260200190815260200160002081905550806002016000815480929190610afe90613e87565b9091555060009050805b6004830154811015610cd9578254610b21908790613e6f565b6013846004018381548110610b3857610b38613e2c565b906000526020600020015481548110610b5357610b53613e2c565b90600052602060002090600402016000015411158015610bc257508254610b7b908790613e6f565b6013846004018381548110610b9257610b92613e2c565b906000526020600020015481548110610bad57610bad613e2c565b90600052602060002090600402016001015410155b15610cc7576013836004018281548110610bde57610bde613e2c565b906000526020600020015481548110610bf957610bf9613e2c565b90600052602060002090600402019150826004018181548110610c1e57610c1e613e2c565b9060005260206000200154600e6000888660000154610c3d9190613e6f565b8152602081019190915260400160002055600282015415610cc257600282018054906000610c6a83613e87565b91905055508160020154600003610cc25781546001830154604080518a815260208101939093528201527fd3edbeb94dfb8eadcd8c291774b9ac3cc9b06af829273e295bf3197849934b889060600160405180910390a15b610cd9565b80610cd181613e9e565b915050610b08565b508160020154600003610d2257857f7118e1ae63262db55027a75ee525791f482e7fdf6c2ccb6c11528bf1652780e183600301604051610d199190613f56565b60405180910390a25b50505050505050565b600080516020614288833981519152610d4381612620565b60145485908110610d665760405162461bcd60e51b815260040161086f90613de9565b600060148781548110610d7b57610d7b613e2c565b906000526020600020906005020190508060010154858260000154610da09190613e6f565b1115610df85760405162461bcd60e51b815260206004820152602160248201527f52414952204552433732313a20496e76616c696420656e64696e6720746f6b656044820152603760f91b606482015260840161086f565b80546001820154610e099190613e58565b610e138787613e58565b1115610e6b5760405162461bcd60e51b815260206004820152602160248201527f52414952204552433732313a20496e76616c696420746f6b656e206c696d69746044820152607360f81b606482015260840161086f565b83610e768787613e58565b610e81906001613e6f565b1015610ee55760405162461bcd60e51b815260206004820152602d60248201527f52414952204552433732313a20496e76616c6964206e756d626572206f66207460448201526c6f6b656e7320746f206c6f636b60981b606482015260840161086f565b610ef0878787611329565b610f3c5760405162461bcd60e51b815260206004820152601f60248201527f52414952204552433732313a2043616e6e6f7420637265617465206c6f636b00604482015260640161086f565b60138054600181018255600091909152815460049091027f66de8ffda797e3de9c05e8fc57b3bf0ec28a930d40b0d285d93c06501cf6a0900190610f81908890613e6f565b81558154610f90908790613e6f565b60018083019190915560028201869055600382018990556013546004840191610fb891613e58565b8154600181018355600092835260209092209091015581547f31677189d834d986e226e646cd121f117815e9bf4992c19728ca028f2ee542e6908990610fff908a90613e6f565b845461100c908a90613e6f565b6013548990600388019061102290600190613e58565b60405161103496959493929190613f69565b60405180910390a15050505050505050565b60008051602061428883398151915261105e81612620565b6000848152601060205260409020611077908484613685565b507f483621391b5e72d74eb03c7b5715531c486e326fb115ab3bcf34b133041854ce8484846040516110ab93929190613fd0565b60405180910390a150505050565b6110c33382612647565b6110df5760405162461bcd60e51b815260040161086f90613ff3565b6109a483838361271d565b600c602052816000526040600020818154811061110657600080fd5b90600052602060002001600091509150505481565b6000818152600d6020908152604080832054600e90925282205460138054909190811061114a5761114a613e2c565b90600052602060002090600402016003015414801561076257506000828152600e602052604081205460138054909190811061118857611188613e2c565b9060005260206000209060040201600201541192915050565b6000806111bd6000805160206142888339815191526000611b4d565b601554620186a0906111da90600160a01b900461ffff1686614044565b6111e49190614079565b915091505b9250929050565b6000828152600a602052604090206001015461120b81612620565b6109a483836128c4565b6000611220836118ef565b82106112825760405162461bcd60e51b815260206004820152602b60248201527f455243373231456e756d657261626c653a206f776e657220696e646578206f7560448201526a74206f6620626f756e647360a81b606482015260840161086f565b506001600160a01b03919091166000908152600660209081526040808320938352929052205490565b6001600160a01b038116331461131b5760405162461bcd60e51b815260206004820152602f60248201527f416363657373436f6e74726f6c3a2063616e206f6e6c792072656e6f756e636560448201526e103937b632b9903337b91039b2b63360891b606482015260840161086f565b61132582826128e6565b5050565b6000806014858154811061133f5761133f613e2c565b90600052602060002090600502019050806000015481600101546113639190613e58565b84118061137f57508054600182015461137c9190613e58565b83115b1561138e576000915050611528565b60005b60048201548110156115215781546113aa908690613e6f565b60138360040183815481106113c1576113c1613e2c565b9060005260206000200154815481106113dc576113dc613e2c565b9060005260206000209060040201600001541115801561144b57508154611404908690613e6f565b601383600401838154811061141b5761141b613e2c565b90600052602060002001548154811061143657611436613e2c565b90600052602060002090600402016001015410155b806114ff5750815461145e908590613e6f565b601383600401838154811061147557611475613e2c565b90600052602060002001548154811061149057611490613e2c565b906000526020600020906004020160000154111580156114ff575081546114b8908590613e6f565b60138360040183815481106114cf576114cf613e2c565b9060005260206000200154815481106114ea576114ea613e2c565b90600052602060002090600402016001015410155b1561150f57600092505050611528565b8061151981613e9e565b915050611391565b5060019150505b9392505050565b6109a483838360405180602001604052806000815250611c00565b60008051602061428883398151915261156281612620565b817fa109ba539900bf1b633f956d63c96fc89b814c7287f7aa50a9216d0b5565720761158d84612115565b60405161159a9190613836565b60405180910390a25050565b60006115b160085490565b82106116145760405162461bcd60e51b815260206004820152602c60248201527f455243373231456e756d657261626c653a20676c6f62616c20696e646578206f60448201526b7574206f6620626f756e647360a01b606482015260840161086f565b6008828154811061162757611627613e2c565b90600052602060002001549050919050565b60008051602061428883398151915261165181612620565b61165d600f8484613685565b507f5411e8ebf1636d9e83d5fc4900bf80cbac82e8790da2a4c94db4895e889eedf6838360405161168f92919061408d565b60405180910390a1505050565b6000818152600260205260408120546001600160a01b0316806107625760405162461bcd60e51b815260206004820152602960248201527f4552433732313a206f776e657220717565727920666f72206e6f6e657869737460448201526832b73a103a37b5b2b760b91b606482015260840161086f565b6000806014858154811061172957611729613e2c565b90600052602060002090600502016040518060a001604052908160008201548152602001600182015481526020016002820154815260200160038201805461177090613daf565b80601f016020809104026020016040519081016040528092919081815260200182805461179c90613daf565b80156117e95780601f106117be576101008083540402835291602001916117e9565b820191906000526020600020905b8154815290600101906020018083116117cc57829003601f168201915b505050505081526020016004820180548060200260200160405190810160405280929190818152602001828054801561184157602002820191906000526020600020905b81548152602001906001019080831161182d575b505050505081525050905080602001516000146118e15760005b611864876118ef565b8110156118df5760006118778883611215565b6000818152600d6020526040902054909150871480156118a35750825161189f908790613e6f565b8110155b80156118bb575082516118b7908690613e6f565b8111155b156118cc57600193505050506118e7565b50806118d781613e9e565b91505061185b565b505b60009150505b949350505050565b60006001600160a01b03821661195a5760405162461bcd60e51b815260206004820152602a60248201527f4552433732313a2062616c616e636520717565727920666f7220746865207a65604482015269726f206164647265737360b01b606482015260840161086f565b506001600160a01b031660009081526003602052604090205490565b60008060008060006013868154811061199157611991613e2c565b90600052602060002090600402016040518060800160405290816000820154815260200160018201548152602001600282015481526020016003820154815250509050600060148260600151815481106119ed576119ed613e2c565b90600052602060002090600502016040518060a0016040529081600082015481526020016001820154815260200160028201548152602001600382018054611a3490613daf565b80601f0160208091040260200160405190810160405280929190818152602001828054611a6090613daf565b8015611aad5780601f10611a8257610100808354040283529160200191611aad565b820191906000526020600020905b815481529060010190602001808311611a9057829003601f168201915b5050505050815260200160048201805480602002602001604051908101604052809291908181526020018280548015611b0557602002820191906000526020600020905b815481526020019060010190808311611af1575b50505091909252505081518451929350611b2192909150613e58565b81516020840151611b329190613e58565b83604001518460600151955095509550955050509193509193565b6000828152600b602052604081206115289083612908565b6000918252600a602090815260408084206001600160a01b0393909316845291905290205460ff1690565b600080516020614288833981519152611ba881612620565b611bb460128484613685565b507fd5ee5eaf65263bab5d569890714d123ad48a9e54409d35e71d374f3dd300bba0838360405161168f92919061408d565b60606001805461077790613daf565b611325338383612914565b611c0a3383612647565b611c265760405162461bcd60e51b815260040161086f90613ff3565b611c32848484846129e2565b50505050565b6000806000606080600060148781548110611c5557611c55613e2c565b90600052602060002090600502016040518060a0016040529081600082015481526020016001820154815260200160028201548152602001600382018054611c9c90613daf565b80601f0160208091040260200160405190810160405280929190818152602001828054611cc890613daf565b8015611d155780601f10611cea57610100808354040283529160200191611d15565b820191906000526020600020905b815481529060010190602001808311611cf857829003601f168201915b5050505050815260200160048201805480602002602001604051908101604052809291908181526020018280548015611d6d57602002820191906000526020600020905b815481526020019060010190808311611d59575b5050509190925250508151602083015160408401516060850151608090950151929c919b5099509297509550909350505050565b6000838060148054905011611dc85760405162461bcd60e51b815260040161086f90613de9565b600060148681548110611ddd57611ddd613e2c565b90600052602060002090600502016040518060a0016040529081600082015481526020016001820154815260200160028201548152602001600382018054611e2490613daf565b80601f0160208091040260200160405190810160405280929190818152602001828054611e5090613daf565b8015611e9d5780601f10611e7257610100808354040283529160200191611e9d565b820191906000526020600020905b815481529060010190602001808311611e8057829003601f168201915b5050505050815260200160048201805480602002602001604051908101604052809291908181526020018280548015611ef557602002820191906000526020600020905b815481526020019060010190808311611ee1575b50505050508152505090506000858260000151611f129190613e6f565b90505b8151611f22908690613e6f565b8111611f6b576000818152600260205260409020546001600160a01b0316611f59578151611f509082613e58565b93505050611fda565b80611f6381613e9e565b915050611f15565b5060405162461bcd60e51b815260206004820152603960248201527f52414952204552433732313a20546865726520617265206e6f20617661696c6160448201527f626c6520746f6b656e7320696e20746869732072616e67652e00000000000000606482015260840161086f565b509392505050565b6000818152600d602052604081205460148054909190811061200657612006613e2c565b906000526020600020906005020160000154826107629190613e58565b60008051602061428883398151915261203b81612620565b8382146120b05760405162461bcd60e51b815260206004820152603b60248201527f52414952204552433732313a20546f6b656e2049447320616e6420555249732060448201527f73686f756c642068617665207468652073616d65206c656e6774680000000000606482015260840161086f565b60005b8481101561210d576120fb8686838181106120d0576120d0613e2c565b905060200201358585848181106120e9576120e9613e2c565b90506020028101906103e991906140a1565b8061210581613e9e565b9150506120b3565b505050505050565b60008181526010602052604081208054606092919061213390613daf565b80601f016020809104026020016040519081016040528092919081815260200182805461215f90613daf565b80156121ac5780601f10612181576101008083540402835291602001916121ac565b820191906000526020600020905b81548152906001019060200180831161218f57829003601f168201915b505050505090506000815111156121c35792915050565b6000838152600d602090815260408083205483526011909152902080546121e990613daf565b80601f016020809104026020016040519081016040528092919081815260200182805461221590613daf565b80156122625780601f1061223757610100808354040283529160200191612262565b820191906000526020600020905b81548152906001019060200180831161224557829003601f168201915b505050505090506000815111156122ad578061228561228085611fe2565b612a15565b6040516020016122969291906140e8565b604051602081830303815290604052915050919050565b61152883612b16565b6000818152600b6020526040812061076290612bc9565b6000805160206142888339815191526122e581612620565b60008481526011602052604090206122fe908484613685565b507f658b273d88cb66d5790b2e0cb1510b48ab78d39cba1c9cad2df51068c42c607c8484846040516110ab93929190613fd0565b6000828152600a602052604090206001015461234d81612620565b6109a483836128e6565b60606012805461077790613daf565b60008051602061428883398151915261237e81612620565b601454600090156123cc576014805461239990600190613e58565b815481106123a9576123a9613e2c565b90600052602060002090600502016001015460016123c79190613e6f565b6123cf565b60005b60148054600181810183556000929092526005027fce6d7b5282bd9a3661ae061feed1dbda4e52ab073b1f9285be6e155d9c38d4ec018281559192506124158584613e6f565b61241f9190613e58565b600182015584516124399060038301906020880190613709565b506002810184905560145461245090600190613e58565b7f8d3d82130aebba03bb48b5d158bc2bbb4647856765b1089e7250507307965af986848760405161248393929190614117565b60405180910390a25050505050565b60006124be7f872340a532bdd7bb02bea115c1b0f1ba87eac982f5b79b51ac189ffaac1b6fce83611b65565b8061152857506001600160a01b0380841660009081526005602090815260408083209386168352929052205460ff16611528565b6124fc8282611b65565b611325576000828152600a602090815260408083206001600160a01b03851684529091529020805460ff191660011790556125343390565b6001600160a01b0316816001600160a01b0316837f2f8788117e7eff1d82e926ec794901d17c78024a50270940304540a733656f0d60405160405180910390a45050565b6000611528836001600160a01b038416612bd3565b60006001600160e01b03198216635a05180f60e01b1480610762575061076282612c22565b600081815260046020526040902080546001600160a01b0319166001600160a01b03841690811790915581906125e78261169c565b6001600160a01b03167f8c5be1e5ebec7d5bd14f71427d1e84f3dd0314c0f7b2291e5b200ac8c7c3b92560405160405180910390a45050565b61262a8133612c47565b50565b611325828260405180602001604052806000815250612cab565b6000818152600260205260408120546001600160a01b03166126c05760405162461bcd60e51b815260206004820152602c60248201527f4552433732313a206f70657261746f7220717565727920666f72206e6f6e657860448201526b34b9ba32b73a103a37b5b2b760a11b606482015260840161086f565b60006126cb8361169c565b9050806001600160a01b0316846001600160a01b031614806126f257506126f28185612492565b806118e75750836001600160a01b031661270b846107fa565b6001600160a01b031614949350505050565b826001600160a01b03166127308261169c565b6001600160a01b0316146127945760405162461bcd60e51b815260206004820152602560248201527f4552433732313a207472616e736665722066726f6d20696e636f72726563742060448201526437bbb732b960d91b606482015260840161086f565b6001600160a01b0382166127f65760405162461bcd60e51b8152602060048201526024808201527f4552433732313a207472616e7366657220746f20746865207a65726f206164646044820152637265737360e01b606482015260840161086f565b612801838383612cde565b61280c6000826125b2565b6001600160a01b0383166000908152600360205260408120805460019290612835908490613e58565b90915550506001600160a01b0382166000908152600360205260408120805460019290612863908490613e6f565b909155505060008181526002602052604080822080546001600160a01b0319166001600160a01b0386811691821790925591518493918716917fddf252ad1be2c89b69c2b068fc378daa952ba7f163c4a11628f55a4df523b3ef91a4505050565b6128ce82826124f2565b6000828152600b602052604090206109a49082612578565b6128f08282612e38565b6000828152600b602052604090206109a49082612e9f565b60006115288383612eb4565b816001600160a01b0316836001600160a01b0316036129755760405162461bcd60e51b815260206004820152601960248201527f4552433732313a20617070726f766520746f2063616c6c657200000000000000604482015260640161086f565b6001600160a01b03838116600081815260056020908152604080832094871680845294825291829020805460ff191686151590811790915591519182527f17307eab39ab6107e8899845ad3d59bd9653f200f220920489ca2b5937696c31910160405180910390a3505050565b6129ed84848461271d565b6129f984848484612ede565b611c325760405162461bcd60e51b815260040161086f9061413c565b606081600003612a3c5750506040805180820190915260018152600360fc1b602082015290565b8160005b8115612a665780612a5081613e9e565b9150612a5f9050600a83614079565b9150612a40565b60008167ffffffffffffffff811115612a8157612a81613b0a565b6040519080825280601f01601f191660200182016040528015612aab576020820181803683370190505b5090505b84156118e757612ac0600183613e58565b9150612acd600a8661418e565b612ad8906030613e6f565b60f81b818381518110612aed57612aed613e2c565b60200101906001600160f81b031916908160001a905350612b0f600a86614079565b9450612aaf565b6000818152600260205260409020546060906001600160a01b0316612b955760405162461bcd60e51b815260206004820152602f60248201527f4552433732314d657461646174613a2055524920717565727920666f72206e6f60448201526e3732bc34b9ba32b73a103a37b5b2b760891b606482015260840161086f565b6000612b9f612fdc565b90506000815111612bbf5760405180602001604052806000815250611528565b8061228584612a15565b6000610762825490565b6000818152600183016020526040812054612c1a57508154600181810184556000848152602080822090930184905584548482528286019093526040902091909155610762565b506000610762565b60006001600160e01b03198216637965db0b60e01b1480610762575061076282612feb565b612c518282611b65565b61132557612c69816001600160a01b03166014613010565b612c74836020613010565b604051602001612c859291906141a2565b60408051601f198184030181529082905262461bcd60e51b825261086f91600401613836565b612cb583836131ac565b612cc26000848484612ede565b6109a45760405162461bcd60e51b815260040161086f9061413c565b6001600160a01b03831615801590612cfe57506001600160a01b03821615155b15612e2d5760135415801590612d5357506000818152600d6020908152604080832054600e90925290912054601380549091908110612d3f57612d3f613e2c565b906000526020600020906004020160030154145b15612e03576000818152600e6020526040902054601380549091908110612d7c57612d7c613e2c565b906000526020600020906004020160020154600014612e035760405162461bcd60e51b815260206004820152603a60248201527f52414952204552433732313a205472616e736665727320666f7220746869732060448201527f72616e6765206172652063757272656e746c79206c6f636b6564000000000000606482015260840161086f565b612e2d7f872340a532bdd7bb02bea115c1b0f1ba87eac982f5b79b51ac189ffaac1b6fce33612c47565b6109a48383836132fa565b612e428282611b65565b15611325576000828152600a602090815260408083206001600160a01b0385168085529252808320805460ff1916905551339285917ff6391f5c32d9c69d2a47ea670b442974b53935d1edc7fd64eb21e047a839171b9190a45050565b6000611528836001600160a01b0384166133b2565b6000826000018281548110612ecb57612ecb613e2c565b9060005260206000200154905092915050565b60006001600160a01b0384163b15612fd457604051630a85bd0160e11b81526001600160a01b0385169063150b7a0290612f22903390899088908890600401614217565b6020604051808303816000875af1925050508015612f5d575060408051601f3d908101601f19168201909252612f5a91810190614254565b60015b612fba573d808015612f8b576040519150601f19603f3d011682016040523d82523d6000602084013e612f90565b606091505b508051600003612fb25760405162461bcd60e51b815260040161086f9061413c565b805181602001fd5b6001600160e01b031916630a85bd0160e11b1490506118e7565b5060016118e7565b6060600f805461077790613daf565b60006001600160e01b0319821663780e9d6360e01b14806107625750610762826134a5565b6060600061301f836002614044565b61302a906002613e6f565b67ffffffffffffffff81111561304257613042613b0a565b6040519080825280601f01601f19166020018201604052801561306c576020820181803683370190505b509050600360fc1b8160008151811061308757613087613e2c565b60200101906001600160f81b031916908160001a905350600f60fb1b816001815181106130b6576130b6613e2c565b60200101906001600160f81b031916908160001a90535060006130da846002614044565b6130e5906001613e6f565b90505b600181111561315d576f181899199a1a9b1b9c1cb0b131b232b360811b85600f166010811061311957613119613e2c565b1a60f81b82828151811061312f5761312f613e2c565b60200101906001600160f81b031916908160001a90535060049490941c9361315681613e87565b90506130e8565b5083156115285760405162461bcd60e51b815260206004820181905260248201527f537472696e67733a20686578206c656e67746820696e73756666696369656e74604482015260640161086f565b6001600160a01b0382166132025760405162461bcd60e51b815260206004820181905260248201527f4552433732313a206d696e7420746f20746865207a65726f2061646472657373604482015260640161086f565b6000818152600260205260409020546001600160a01b0316156132675760405162461bcd60e51b815260206004820152601c60248201527f4552433732313a20746f6b656e20616c7265616479206d696e74656400000000604482015260640161086f565b61327360008383612cde565b6001600160a01b038216600090815260036020526040812080546001929061329c908490613e6f565b909155505060008181526002602052604080822080546001600160a01b0319166001600160a01b03861690811790915590518392907fddf252ad1be2c89b69c2b068fc378daa952ba7f163c4a11628f55a4df523b3ef908290a45050565b6001600160a01b0383166133555761335081600880546000838152600960205260408120829055600182018355919091527ff3f7a9fe364faab93b216da50a3214154f22a0a2b415b23a84c8169e8b636ee30155565b613378565b816001600160a01b0316836001600160a01b0316146133785761337883826134f5565b6001600160a01b03821661338f576109a481613592565b826001600160a01b0316826001600160a01b0316146109a4576109a48282613641565b6000818152600183016020526040812054801561349b5760006133d6600183613e58565b85549091506000906133ea90600190613e58565b905081811461344f57600086600001828154811061340a5761340a613e2c565b906000526020600020015490508087600001848154811061342d5761342d613e2c565b6000918252602080832090910192909255918252600188019052604090208390555b855486908061346057613460614271565b600190038181906000526020600020016000905590558560010160008681526020019081526020016000206000905560019350505050610762565b6000915050610762565b60006001600160e01b031982166380ac58cd60e01b14806134d657506001600160e01b03198216635b5e139f60e01b145b8061076257506301ffc9a760e01b6001600160e01b0319831614610762565b60006001613502846118ef565b61350c9190613e58565b60008381526007602052604090205490915080821461355f576001600160a01b03841660009081526006602090815260408083208584528252808320548484528184208190558352600790915290208190555b5060009182526007602090815260408084208490556001600160a01b039094168352600681528383209183525290812055565b6008546000906135a490600190613e58565b600083815260096020526040812054600880549394509092849081106135cc576135cc613e2c565b9060005260206000200154905080600883815481106135ed576135ed613e2c565b600091825260208083209091019290925582815260099091526040808220849055858252812055600880548061362557613625614271565b6001900381819060005260206000200160009055905550505050565b600061364c836118ef565b6001600160a01b039093166000908152600660209081526040808320868452825280832085905593825260079052919091209190915550565b82805461369190613daf565b90600052602060002090601f0160209004810192826136b357600085556136f9565b82601f106136cc5782800160ff198235161785556136f9565b828001600101855582156136f9579182015b828111156136f95782358255916020019190600101906136de565b5061370592915061377d565b5090565b82805461371590613daf565b90600052602060002090601f01602090048101928261373757600085556136f9565b82601f1061375057805160ff19168380011785556136f9565b828001600101855582156136f9579182015b828111156136f9578251825591602001919060010190613762565b5b80821115613705576000815560010161377e565b6001600160e01b03198116811461262a57600080fd5b6000602082840312156137ba57600080fd5b813561152881613792565b6000602082840312156137d757600080fd5b5035919050565b60005b838110156137f95781810151838201526020016137e1565b83811115611c325750506000910152565b600081518084526138228160208601602086016137de565b601f01601f19169290920160200192915050565b602081526000611528602083018461380a565b80356001600160a01b038116811461386057600080fd5b919050565b6000806040838503121561387857600080fd5b61388183613849565b946020939093013593505050565b6000806000606084860312156138a457600080fd5b6138ad84613849565b95602085013595506040909401359392505050565b600080600080608085870312156138d857600080fd5b5050823594602084013594506040840135936060013592509050565b60008083601f84011261390657600080fd5b50813567ffffffffffffffff81111561391e57600080fd5b6020830191508360208285010111156111e957600080fd5b60008060006040848603121561394b57600080fd5b83359250602084013567ffffffffffffffff81111561396957600080fd5b613975868287016138f4565b9497909650939450505050565b60008060006060848603121561399757600080fd5b6139a084613849565b92506139ae60208501613849565b9150604084013590509250925092565b600080604083850312156139d157600080fd5b50508035926020909101359150565b600080604083850312156139f357600080fd5b82359150613a0360208401613849565b90509250929050565b600080600060608486031215613a2157600080fd5b505081359360208301359350604090920135919050565b60008060208385031215613a4b57600080fd5b823567ffffffffffffffff811115613a6257600080fd5b613a6e858286016138f4565b90969095509350505050565b60008060008060808587031215613a9057600080fd5b613a9985613849565b966020860135965060408601359560600135945092505050565b600060208284031215613ac557600080fd5b61152882613849565b60008060408385031215613ae157600080fd5b613aea83613849565b915060208301358015158114613aff57600080fd5b809150509250929050565b634e487b7160e01b600052604160045260246000fd5b600067ffffffffffffffff80841115613b3b57613b3b613b0a565b604051601f8501601f19908116603f01168101908282118183101715613b6357613b63613b0a565b81604052809350858152868686011115613b7c57600080fd5b858560208301376000602087830101525050509392505050565b60008060008060808587031215613bac57600080fd5b613bb585613849565b9350613bc360208601613849565b925060408501359150606085013567ffffffffffffffff811115613be657600080fd5b8501601f81018713613bf757600080fd5b613c0687823560208401613b20565b91505092959194509250565b85815260006020868184015285604084015260a06060840152613c3860a084018661380a565b838103608085015284518082528286019183019060005b81811015613c6b57835183529284019291840191600101613c4f565b50909a9950505050505050505050565b60008083601f840112613c8d57600080fd5b50813567ffffffffffffffff811115613ca557600080fd5b6020830191508360208260051b85010111156111e957600080fd5b60008060008060408587031215613cd657600080fd5b843567ffffffffffffffff80821115613cee57600080fd5b613cfa88838901613c7b565b90965094506020870135915080821115613d1357600080fd5b50613d2087828801613c7b565b95989497509550505050565b60008060408385031215613d3f57600080fd5b823567ffffffffffffffff811115613d5657600080fd5b8301601f81018513613d6757600080fd5b613d7685823560208401613b20565b95602094909401359450505050565b60008060408385031215613d9857600080fd5b613da183613849565b9150613a0360208401613849565b600181811c90821680613dc357607f821691505b602082108103613de357634e487b7160e01b600052602260045260246000fd5b50919050565b60208082526023908201527f52414952204552433732313a2050726f6475637420646f6573206e6f742065786040820152621a5cdd60ea1b606082015260800190565b634e487b7160e01b600052603260045260246000fd5b634e487b7160e01b600052601160045260246000fd5b600082821015613e6a57613e6a613e42565b500390565b60008219821115613e8257613e82613e42565b500190565b600081613e9657613e96613e42565b506000190190565b600060018201613eb057613eb0613e42565b5060010190565b8054600090600181811c9080831680613ed157607f831692505b60208084108203613ef257634e487b7160e01b600052602260045260246000fd5b83885260208801828015613f0d5760018114613f1e57613f49565b60ff19871682528282019750613f49565b60008981526020902060005b87811015613f4357815484820152908601908401613f2a565b83019850505b5050505050505092915050565b6020815260006115286020830184613eb7565b86815285602082015284604082015283606082015260c060808201526000613f9460c0830185613eb7565b90508260a0830152979650505050505050565b81835281816020850137506000828201602090810191909152601f909101601f19169091010190565b838152604060208201526000613fea604083018486613fa7565b95945050505050565b60208082526031908201527f4552433732313a207472616e736665722063616c6c6572206973206e6f74206f6040820152701ddb995c881b9bdc88185c1c1c9bdd9959607a1b606082015260800190565b600081600019048311821515161561405e5761405e613e42565b500290565b634e487b7160e01b600052601260045260246000fd5b60008261408857614088614063565b500490565b6020815260006118e7602083018486613fa7565b6000808335601e198436030181126140b857600080fd5b83018035915067ffffffffffffffff8211156140d357600080fd5b6020019150368190038213156111e957600080fd5b600083516140fa8184602088016137de565b83519083019061410e8183602088016137de565b01949350505050565b60608152600061412a606083018661380a565b60208301949094525060400152919050565b60208082526032908201527f4552433732313a207472616e7366657220746f206e6f6e20455243373231526560408201527131b2b4bb32b91034b6b83632b6b2b73a32b960711b606082015260800190565b60008261419d5761419d614063565b500690565b7f416363657373436f6e74726f6c3a206163636f756e74200000000000000000008152600083516141da8160178501602088016137de565b7001034b99036b4b9b9b4b733903937b6329607d1b601791840191820152835161420b8160288401602088016137de565b01602801949350505050565b6001600160a01b038581168252841660208201526040810183905260806060820181905260009061424a9083018461380a565b9695505050505050565b60006020828403121561426657600080fd5b815161152881613792565b634e487b7160e01b600052603160045260246000fdfe3c2519c4487d47714872f92cf90a50c25f5deaec2789dc2a497b1272df611db6a2646970667358221220d27920f07a0eb0520dcd1aefff6f93d57fc307476bc70f81e49e5d2eb86e2bd864736f6c634300080e00333c2519c4487d47714872f92cf90a50c25f5deaec2789dc2a497b1272df611db6f0887ba65ee2024ea881d91b74c2450ef19e1557f03bed3ea9f16b037cbe2dc9872340a532bdd7bb02bea115c1b0f1ba87eac982f5b79b51ac189ffaac1b6fce",
  "linkReferences": {},
  "deployedLinkReferences": {}
}